:020000040800F2
:10000000C806002089010008CF1100080F0D000864
:10001000CD1100088F02000827130008000000001F
:10002000000000000000000000000000C1120008F5
:100030009102000800000000D1110008C31200085E
:10004000A3010008A3010008A3010008A301000800
:10005000A3010008A3010008A3010008A3010008F0
:10006000A3010008A3010008A3010008A3010008E0
:10007000A3010008A3010008A3010008A3010008D0
:10008000A3010008A3010008A3010008A3010008C0
:10009000A3010008A3010008A3010008A3010008B0
:1000A000A3010008A3010008A3010008A3010008A0
:1000B000A3010008A3010008A3010008A301000890
:1000C000A3010008A3010008A3010008A301000880
:1000D000A3010008A3010008A3010008A301000870
:1000E000A3010008A3010008A301000800F002F822
:1000F00000F03AF80AA090E8000C82448344AAF188
:100100000107DA4501D100F02FF8AFF2090EBAE885
:100110000F0013F0010F18BFFB1A43F0010318473B
:10012000E814000008150000103A24BF78C878C110
:10013000FAD8520724BF30C830C144BF04680C60ED
:10014000704700000023002400250026103A28BF35
:1001500078C1FBD8520728BF30C148BF0B60704739
:100160001FB51FBD10B510BD00F058F81146FFF7C0
:10017000F7FF01F0E9F800F076F803B4FFF7F2FFBB
:1001800003BC00F07DF8000009488047094800479B
:10019000FEE7FEE7FEE7FEE7FEE7FEE7FEE7FEE737
:1001A000FEE7FEE704480549054A064B7047000094
:1001B00025130008ED000008C8000020C806002034
:1001C000C8020020C80200204FF0000200B513460C
:1001D00094469646203922BFA0E80C50A0E80C5067
:1001E000B1F12001BFF4F7AF090728BFA0E80C5018
:1001F00048BF0CC05DF804EB890028BF40F8042B11
:1002000008BF704748BF20F8022B11F0804F18BF7D
:1002100000F8012B7047704770477047754600F033
:100220002BF8AE4605006946534620F00700854688
:1002300018B020B5FFF7B6FFBDE820404FF000062C
:100240004FF000074FF000084FF0000B21F00701BE
:10025000AC46ACE8C009ACE8C009ACE8C009ACE801
:10026000C0098D46704710B50446AFF300802046A4
:10027000BDE81040FFF781BF0048704768000020CC
:1002800001491820ABBEFEE7260002007047FEE7DA
:100290007047000070B5044600F004F90546601C84
:1002A00002D004480078044400F0FCF8401BA0424F
:1002B000FAD370BD000000202DE9F84FDFF8B891A7
:1002C0000024A9F1040B23460F2709F1040AABF11E
:1002D000040EC9E00125A5402A40AA427DD1674EFF
:1002E000D1F804C0ACEB0608B44532D014DCBCF144
:1002F000030F3AD009DCBCF1000F2AD0BCF1010F8A
:100300001CD0BCF1020F31D11DE0BCF1110F17D090
:10031000BCF1120F2AD119E0B8F5881F19D006DCFC
:10032000B8F5803F15D0B8F5801F1FD111E0B8F5A2
:10033000001F0ED0B8F5041F18D10AE0CB6815E0F5
:10034000CB681B1D12E0CB6808330FE0CB680C3381
:100350000CE08B682BB1012B4FF0080303D04561F3
:1003600004E0042302E0056100E00023FF2A01D835
:10037000064601E000F104064FEA840501D9A5F123
:100380002005D6F8008007FA05FC28EA0C0803FAD5
:1003900005F548EA0508C6F800804D68ED0062D50D
:1003A000374DAE6946F00106AE61AD6924F0030633
:1003B00005F001050095334D06EB050CDCF80850FF
:1003C000A607360F07FA06F825EA0805DFF8B88011
:1003D000404503D14FF0000817E044E0DFF8AC805F
:1003E000404502D14FF001080FE0DFF8A4804045FE
:1003F00002D14FF0020808E0DFF89880404502D1B2
:100400004FF0030801E04FF0040808FA06F848EA44
:100410000508CCF808804D68D9F80060ED024D461B
:1004200001D5164300E096432E604D68DAF800606F
:10043000AD02554601D5164300E096432E604D6847
:10044000DBF80060AD035D4601D5164300E096433E
:100450002E604D68DEF80060ED03754601D5164349
:1004600000E096432E60641C0D682A46E5407FF448
:1004700031AFBDE8F88F0000080401400000111002
:10048000001002400000014000080140000C014043
:1004900000100140001401400AB1016170470904D5
:1004A000FBE7000001488068704700000000002062
:1004B0000248816802781144816070470000002082
:1004C000074810B5016841F010010160032000F0F9
:1004D00067F80F2000F006F800F024F8002010BDA7
:1004E0000020024070B50D4D04464FF47A71287813
:1004F000B1FBF0F00A490968B1FBF0F000F0F3FB42
:1005000048B9102C07D200222146501E00F028F8CE
:1005100000206C6070BD012070BD00000000002054
:100520000C0000200C4808B5816941F0010181618F
:10053000816901F001010091C16941F08051C161FF
:10054000C06900F0805000900448416821F0E061EB
:1005500041F00071416008BD001002400000014000
:10056000F0B40E4B1B680C46C3F30223C3F107051E
:10057000042D00D90425191D072901D2002300E00C
:10058000DB1E012606FA05F1491E214099409E40D6
:10059000761E16403143F0BC00F0C6BE0CED00E004
:1005A000064900F0070208684FF6FF03184040EACA
:1005B0000220034A10430860704700000CED00E081
:1005C0000000FA052DE9F0470F46050061D0434EC3
:1005D000306800F00700B84209D2306820F0070008
:1005E00038433060306800F00700B84251D12868C5
:1005F0003B4C810712D5400703D5606840F4E060AA
:1006000060602878000703D5606840F4605060603F
:100610006068A96820F0F000084360602878C0078F
:1006200028D06868012810D02168022810D08907D6
:1006300000292EDA616821F0030101436160FFF7B0
:1006400031FF804641F288390DE021688903EFE7E8
:100650008901EDE7FFF726FFA0EB0801494502D924
:100660000320BDE8F0876068696800F00C00B0EB1B
:10067000810FEFD1306800F00700B8420BD9306825
:1006800020F0070038433060306800F00700B842BF
:1006900001D00120E5E72878400705D56068E968C2
:1006A00020F4E060084360602878000706D56068A1
:1006B000296920F4605040EAC100606000F018F839
:1006C0006168084AC1F30311515CC84006490860DB
:1006D00006480068FFF706FF0020C2E7002002403E
:1006E00000100240F51500080C0000200400002056
:1006F0000E4A51680E4801F00C03042B11D0082B50
:100700000FD10C48C1F38343C903C05C0AD55168BB
:10071000084AC1F34041921E515C054A5043B0FB68
:10072000F1F0704704494843704700000010024050
:1007300000127A00E515000800093D002DE9F84F88
:10074000040070D02078C04DC00749D06868C0F35D
:100750008100012807D06868C0F38100022809D110
:100760006868C00306D52868800339D5606800280A
:10077000E7D035E06068B0F5803F0BD010B1B0F540
:10078000A02F11D0286820F480302860286820F439
:10079000802002E0286840F480302860606890B1D2
:1007A000FFF780FE06460AE0286840F480202860B3
:1007B000F0E700BFFFF776FE801B642873D8286837
:1007C0008003F7D50CE0FFF76DFE064605E000BF9D
:1007D000FFF768FE801B6428F0D828688003F7D4F0
:1007E00020789A4E80074FF001094FF0000839D564
:1007F000686810F00C0F07D06868C0F38100022809
:1008000009D16868C00306D42868800714D5206918
:10081000012808D110E02069B0B1C6F80090FFF7B8
:1008200041FE074605E00AE1FFF73CFEC01B022837
:10083000C4D828688007F7D52868616920F0F800D7
:1008400040EAC10028600DE0C6F80080FFF72AFEEC
:10085000074604E0FFF726FEC01B022823D82868BD
:100860008007F7D4207800072CD57948A169D9B141
:10087000C0F80090FFF716FE074604E0FFF712FEEF
:10088000C01B02280FD8686A8007F7D571484FF45B
:10089000FA510068B0FBF1F0009000BF0098411ED3
:1008A0000091FAD20EE080E0C0F80080FFF7FAFD78
:1008B000074604E0FFF7F6FDC01B022875D8686AFA
:1008C0008007F7D42078400760D5E8690027C0008A
:1008D00008D4E86940F08050E861E869012700F039
:1008E000805000905C480168C90513D401688346B4
:1008F00041F480710160FFF7D5FD824606E000BF3C
:10090000FFF7D0FDA0EB0A0064284ED8DBF800000A
:10091000C005F5D5E06801280AD008B1052813D034
:10092000286A20F001002862286A20F0040002E012
:10093000286A40F001002862E06841F2883B98B1E3
:10094000FFF7B0FD82460BE0286A40F00400286201
:10095000EEE700BFFFF7A6FDA0EB0A0159455AD804
:10096000286A8007F6D50CE0FFF79CFD824605E07B
:10097000FFF798FDA0EB0A0159454CD8286A80077B
:10098000F6D41FB1E86920F08050E861E06988B3CF
:100990006968C1F38101022944D00228C6F8608049
:1009A00004D0FFF77FFD044638E034E0FFF77AFD1E
:1009B000074604E0FFF776FDC01B02282BD8286805
:1009C0008001F7D4206AB0F5803F05D16868A1683E
:1009D00020F4003008436860D4E9080108436968DE
:1009E00021F4741108436860C6F86090FFF75AFD5F
:1009F000044606E025E000BFFFF754FD001B022877
:100A000009D828688001F7D51BE000BFFFF74AFD31
:100A1000001B022802D90320BDE8F88F2868800156
:100A2000F4D40EE00128F7D06868226A00F480311F
:100A3000914204D1616A00F47010884201D0012013
:100A4000EAE70020E8E70000001002400000424210
:100A5000800442420C0000200070004070B5040089
:100A600009D0606A002540B125616561A56294F8EE
:100A7000510040B10CE0012070BD6068B0F5827F8C
:100A8000F4D0E561F2E784F85050204600F040F8D9
:100A9000022084F851002068016821F040010160C3
:100AA000A088218900F4827001F404410843A189DF
:100AB00001F400610843217C01F002010843217D1B
:100AC00001F001010843218B01F400710843217FEB
:100AD00001F03801084394F8201001F08001084328
:100AE000218D01F40051084321680860A0690421A8
:100AF00001EA1040216848602068C16921F4006162
:100B0000C1616565012084F85100002070BD0000BE
:100B100030B585B0002400940194029403940068D9
:100B20001449884223D11448816941F4805181617C
:100B3000816901F480510491816941F0040181616E
:100B400080690E4D00F004000490A0200090022067
:100B500001900320039069462846FFF7ADFB402033
:100B6000CDE90004694628460294FFF7A5FB05B0CD
:100B700030BD00000030014000100240000801407C
:100B80002DE9F84F984616468A460446FFF78AFC38
:100B9000814694F8510001281ED1BAF1000F73D09C
:100BA000002E71D094F85000012815D0012784F848
:100BB0005070032084F8510000256565C4F830A00A
:100BC000A686E686A563A587E58765642564A06893
:100BD000B0F5004F03D00CE00220BDE8F88F20688C
:100BE000016821F0400101602068016841F4804102
:100BF000016020680168490603D4016841F04001A2
:100C00000160E068B0F5006F606803D048B3012E62
:100C100027D047E008B1012E1FD1206B2168008842
:100C2000C86006E020688168890709D5216B0988BA
:100C3000C160206B801C2063E08E401EE0860CE0CB
:100C4000FFF730FCA0EB0901414503D3B8F1FF3FAA
:100C500003D035E0B8F1000F32D0E08E0028E1D1AA
:100C600023E0206B21680078087306E02068816823
:100C700089070AD5216B09780173206B401C20631A
:100C8000E08E401EE0860DE02BE0FFF70BFCA0EBB2
:100C90000901414503D3B8F1FF3F03D010E0B8F19B
:100CA000000F0DD0E08E0028E0D14A464146204694
:100CB00000F08FFA08B120206065A06830B109E02B
:100CC00084F8517084F85050032086E72068C1688A
:100CD0008068009084F8517004F8505F60680028C4
:100CE000F3D0012079E710B5401EB0F1807F01D329
:100CF000012010BD4FF0E02460610F21601700F06B
:100D000013FB0020A06107202061002010BDFEE73A
:100D10002DE9FF4F83B0203A119C8B465F2A51D2B8
:100D200002EB82004FF000080190019927484144EE
:100D30005FF0000710F801905FEAC97001D00698D3
:100D400000E010980026009016E00398002530443B
:100D500008FB040A0CE000BF0BEB050007FB0400D6
:100D600081B21FFA8AF0009A00F032F86D1CEDB2E1
:100D7000A542F1D3761CF6B2A642E6D37F1C4FEA19
:100D80005909082FD8DB08F10108B8F1050FCCDBB1
:100D9000039904EB8400002600EB01080FE0002516
:100DA0000BEB060708E008EB0500B9B280B2109A19
:100DB00000F00EF86D1CEDB2A542F4D3761CB6EB34
:100DC000C40FECDB07B0BDE8F08F0000081400088A
:100DD00038B514460B46024600F056F9200A8DF845
:100DE00000008DF801400C4C012204212046FFF741
:100DF00053FB002210212046FFF74EFB4FF0FF333C
:100E0000022269460548FFF7BBFE01221021204659
:100E1000FFF742FB38BD0000000801401000002031
:100E20002DE9FC479946DDE90A8714468A460546BE
:100E300007EB47060AE0CDE900874B4651462846B6
:100E4000FFF766FF05EB460085B2641C2278002A96
:100E5000F1D1BDE8FC870000F8B50446002140F25E
:100E60003F13EF22084600F00FF9200A8DF800002A
:100E70000F4D8DF80140012204212846FFF70CFB9D
:100E8000002210212846FFF707FB0024661E4FF4BE
:100E900096373346022269460648FFF771FE641C06
:100EA000BC42F6D3012210212846FFF7F5FAF8BD1F
:100EB000000801401000002030B56A4C89B00022C3
:100EC00008212046FFF7E8FA1420FFF7E3F9012292
:100ED00008212046FFF7E0FA9620FFF7DBF9012012
:100EE00000F016F96420FFF7D5F9282000F010F97A
:100EF000CF2000F00DF9002000F028F9C12000F00B
:100F000025F9302000F022F9ED2000F001F96420ED
:100F100000F01CF9032000F019F9122000F016F976
:100F2000812000F013F9E82000F0F2F8852000F0AD
:100F30000DF9002000F00AF9782000F007F9CB2025
:100F400000F0E6F8392000F001F92C2000F0FEF85E
:100F5000002000F0FBF8342000F0F8F8022000F048
:100F6000F5F8F72000F0D4F8202000F0EFF8EA20A0
:100F700000F0CEF8002000F0E9F8002000F0E6F8DC
:100F8000C02000F0C5F8232000F0E0F8C12000F0F8
:100F9000BFF8102000F0DAF8C52000F0B9F83E20C4
:100FA00000F0D4F8282000F0D1F8C72000F0B0F805
:100FB000862000F0CBF8362000F0AAF8A82000F038
:100FC000C5F83A2000F0A4F8552000F0BFF8B12091
:100FD00000F09EF8002000F0B9F8182000F0B6F8F4
:100FE000B62000F095F8082000F0B0F8822000F05C
:100FF000ADF8272000F0AAF8F22000F089F80020D0
:1010000000F0A4F8262000F083F8012000F09EF8FC
:10101000E02000F07DF814A200240FCA8DE80F0034
:101020006D46285D00F092F8641C0F2CF9D3E12086
:1010300000F06EF810A304AD0FCB85E80F0000247C
:10104000285D00F083F8641C0F2CF9D3112000F008
:101050005FF87820FFF71EF9292000F059F809B051
:1010600030BD0000000801400F312B0C0E084EF17E
:10107000370710030E090000000E1403110731C1D9
:1010800048080F0C31360F002DE9F04107461C4689
:1010900015460E462A2000F03BF8380A00F056F8B4
:1010A000F8B200F053F8280A00F050F8E8B200F067
:1010B0004DF82B2000F02CF8300A00F047F8F0B281
:1010C00000F044F8200A00F041F8E0B200F03EF8E9
:1010D000BDE8F0412C2000F01BB810B504463620C6
:1010E00000F016F814F003000AD001280AD00228F4
:1010F0000AD003280AD1E820BDE8104000F026B845
:101100004820F9E72820F7E78820F5E710BD000020
:1011100031B50C4C002204212046FFF7BDF9002216
:1011200010212046FFF7B8F94FF0FF33012269463E
:101130000548FFF725FD012210212046FFF7ACF9F5
:1011400038BD0000000801401000002031B50C4CF3
:10115000012204212046FFF79FF90022102120469A
:10116000FFF79AF94FF0FF33012269460548FFF770
:1011700007FD012210212046FFF78EF938BD00003F
:1011800000080140100000200F4810B50D49016013
:101190004FF48271416000218160C1604FF40072A0
:1011A0000161C0E905120822C0E90721416281629C
:1011B0000A21C162FFF752FC002801D072B6FEE797
:1011C00010BD00000030014010000020FEE7FEE7E7
:1011D0007047F8B515460E460B46009204460122AC
:1011E000022100F011F840B9334600228021204648
:1011F000009500F009F8002804D0606D40F0200050
:1012000060650320F8BD00002DE9F8431E469146B5
:1012100088460446089DFFF745F9401B351AFFF73D
:1012200041F9074625480068C0F3CB30684338E0F1
:10123000701C37D0FFF736F9C01BA84203D215B196
:10124000009860B32CE02068416821F0E001416023
:101250006068B0F5827F0BD1A068B0F5004F02D076
:10126000B0F5806F04D12068016821F04001016071
:10127000A06AB0F5005F09D12068016821F400512F
:1012800001602068016841F400510160012084F888
:101290005100002084F850000320BDE8F8830025A9
:1012A000401E00902068816838EA010004D00021C7
:1012B0004945BDD10020F0E70121F9E70C000020ED
:1012C0007047FFF7F5B830B58FB028216846FEF7B4
:1012D0007BFF14210AA8FEF777FF01210804CDE95E
:1012E00000100024029402250491CDE907504FF428
:1012F000E01009906846FFF721FA08B172B6FEE7E0
:101300000F20CDE90A054FF48060CDE90C400221A1
:101310000AA80E94FFF756F9002801D072B6FEE72E
:101320000FB030BD7047FEE70907090E002804DB47
:1013300000F1E02080F80014704700F00F0000F189
:10134000E02080F8141D704786B0FFF7B9F8FFF76A
:10135000BAFF002426480094019402940394816902
:1013600041F020018161816901F0200104918169CE
:1013700041F00401816180691E4F00F00400049077
:1013800000221C213846FFF787F81C200125022681
:10139000CDE90005CDE9024669463846FEF78CFFE7
:1013A000FFF7F2FE1448FFF787FD0120FFF795FED7
:1013B0000020FFF751FD14214FF6FF730FA20846DE
:1013C000CDE90045FFF72CFDCDE900464FF4784309
:1013D0000AA232211420FFF723FD0320CDE90040AB
:1013E0004FF4FC6305A264211420FFF719FDFEE70A
:1013F0000010024000080140100000205068756F86
:101400006E672054756E6700000000000000005FEA
:1014100000000007000700147F147F14242A7F2A8D
:101420001223130864623649552250000503000058
:10143000001C2241000041221C0014083E08140830
:10144000083E08080050300000080808080800603E
:1014500060000020100804023E5149453E00427FD2
:10146000400042615149462141454B311814127FD9
:101470001027454545393C4A494930017109050362
:101480003649494936064949291E003636000000CA
:10149000563600000814224100141414141400419C
:1014A0002214080201510906324979413E7E111188
:1014B000117E7F494949363E414141227F414122C7
:1014C0001C7F494949417F090909013E4149497A3F
:1014D0007F0808087F00417F41002040413F017F95
:1014E000081422417F404040407F020C027F7F046D
:1014F00008107F3E4141413E7F090909063E4151A6
:10150000215E7F09192946464949493101017F0178
:10151000013F4040403F1F2040201F3F4038403F98
:1015200063140814630708700807615149454300B4
:101530007F41410002040810200041417F00040265
:101540000102044040404040000102040020545485
:1015500054787F484444383844444420384444480C
:101560007F3854545418087E0901020C5252523EDE
:101570007F0804047800447D40002040443D007F03
:101580001028440000417F40007C041804787C0847
:1015900004047838444444387C141414080814149F
:1015A000187C7C080404084854545420043F4440E8
:1015B000203C4040207C1C2040201C3C4030403CD3
:1015C00044281028440C5050503C4464544C44006F
:1015D0000836410000007F00000041360800100876
:1015E000081008010202030405060708090A0B0C8B
:1015F0000D0E0F101000000000000000000102039B
:101600000406070809000000281600080000002052
:101610001000000028010008381600081000002003
:10162000B80600004401000801000000100000009E
:081630000000000000127A0026
:04000005080000ED02
:00000001FF
