:020000040800F2
:10000000C817002041020008DB37000871320008E1
:10001000D9370008D5160008893F00080000000005
:10002000000000000000000000000000A90100081E
:100030000F17000800000000ED010008C53A000895
:100040005B0200085B0200085B0200085B0200081C
:100050005B0200085B0200085B0200085B0200080C
:100060005B0200085B0200085B020008D91600086A
:100070005B0200085B0200085B0200085B020008EC
:100080005B0200085B020008851500085B0200089F
:100090005B0200085B0200085B0200085B020008CC
:1000A0005B0200085B0200085B0200085B020008BC
:1000B0005B0200085B0200085B0200085B020008AC
:1000C0005B0200085B0200085B0200085B0200089C
:1000D0005B0200087D3F00085B0200085B0200082D
:1000E0005B0200085B0200085B02000800F002F8F7
:1000F00000F04AF80AA090E8000C82448344AAF178
:100100000107DA4501D100F03FF8AFF2090EBAE875
:100110000F0013F0010F18BFFB1A43F0010318473B
:10012000D4520000F4520000103A24BF78C878C1BD
:10013000FAD8520724BF30C830C144BF04680C60ED
:10014000704700000023002400250026103A28BF35
:1001500078C1FBD8520728BF30C148BF0B60704739
:10016000662905F02880752900F0CC8000207047B2
:100170001FB500F0C9FC04000020002104F054FD6C
:10018000E0601FBD10B510BD00F0BEFD1146FFF7C9
:10019000EFFF03F06BFF00F0DCFD03B4FFF7F2FFAD
:1001A00003BC00F01FFE0000224B19680868B0E88D
:1001B000F00F80F30988BFF36F8F4FF0000080F3DA
:1001C00011884EF00D0E70470000000006480068D0
:1001D000006880F3088862B661B6BFF34F8FBFF343
:1001E0006F8F00DF00BF00BF08ED00E0EFF3098074
:1001F000BFF36F8F0F4B1A6820E9F00F106008B53E
:100200004FF0500080F31188BFF34F8FBFF36F8F13
:1002100004F044FB4FF0000080F31188BDE8084073
:1002200019680868B0E8F00F80F30988BFF36F8F92
:10023000704700BF40000020EFF3058070470000CA
:100240000948804709480047FEE7FEE7FEE7FEE76A
:10025000FEE7FEE7FEE7FEE7FEE7FEE704480549A6
:10026000054A064B70470000553B0008ED000008AA
:10027000C8110020C8170020C8130020C813002090
:100280000FB41CB50C0007AA009001D02044401EFA
:10029000074B7B4469460190069800F014FC002C43
:1002A00003D06946002000F021FC1CBC5DF814FB63
:1002B0006108000070B5044685690068C10601D573
:1002C000302600E02026C00707D070BDD4E9012108
:1002D00030469047206A401C20626D1EF6D570BDE6
:1002E00070B5044685690078C00707D170BDD4E9B0
:1002F000012120209047206A401C20626D1EF6D507
:1003000070BD00002DE9F0410646002410687529F3
:10031000314616A510D0AFF30080002802DA404223
:1003200013A507E031688A0701D512A502E0490745
:1003300004D511A5012401E0AFF3008000210A22B9
:1003400006F1240709E0B0FBF2FCB0FBF2F302FB7C
:100350001C00303078541846491C0028F3D123463D
:100360002A463046BDE8F04100F040B900000000E8
:100370002D0000002B000000200000002DE9F047B8
:100380004FF0000A89460446C0F820A02046E168E4
:100390008847002876D0252806D0D4E90121904747
:1003A000206A401C2062F1E7E1682046002588476A
:1003B000C4F81CA006460027C4F818A02A2E09D0AD
:1003C000304603F006FE38B304EB8708303EC8F829
:1003D000186019E059F8041B204604EB870291616C
:1003E000E1688847012F064618D1E069002820DA25
:1003F00025F020051DE0D8F8180000EB800006EB82
:1004000040003038C8F818002046E16888470646A2
:1004100003F0DFFD0028EED1012F0AD02E2E08D1E7
:100420002046E16888477F1C0646022F45F02005DC
:10043000C4DBA069002803DA404245F00105A06151
:10044000E80701D025F01005B6B1A6F14100192842
:1004500002D8203645F400654A46314620462560DC
:100460004D46FFF77DFE58B1012806D0ED1D25F061
:10047000070000F1080989E704E005F1040985E7B0
:1004800030468AE7206ABDE8F08730B505460B465E
:100490002A4613F8014B12F8010B08B1A042F8D01C
:1004A0001CB1002802D06D1CF1E7284630BD40EA9F
:1004B0000103024630B59B0710D14FF0013400E034
:1004C00008C208C91D1B9D4315EAC41FF8D013F0CC
:1004D000FF0102F8011B0DD01B0AF8E711F8013BE0
:1004E000002B02F8013B05D011F8013B002B02F86C
:1004F000013BF3D130BD10B5431C02E010F8011BE5
:1005000071B18107FAD14FF0013202C88C1A8C43C5
:1005100014EAC211F9D0C01A0A0603D0C01E10BDD9
:10052000C01A10BD0A0401D0801E10BD0902FCD003
:10053000401E10BD10B5203AC0F00B80B1E8185035
:10054000203AA0E81850B1E81850A0E81850BFF4BD
:10055000F5AF5FEA027C24BFB1E81850A0E818505C
:1005600044BF18C918C0BDE810405FEA827C24BFB0
:1005700051F8043B40F8043B08BF7047D20728BF3E
:1005800031F8023B48BF11F8012B28BF20F8023B8D
:1005900048BF00F8012B70474FF0000200B513462A
:1005A00094469646203922BFA0E80C50A0E80C5093
:1005B000B1F12001BFF4F7AF090728BFA0E80C5044
:1005C00048BF0CC05DF804EB890028BF40F8042B3D
:1005D00008BF704748BF20F8022B11F0804F18BFAA
:1005E00000F8012B70477047704770472DE9F047BE
:1005F0000D4699469246044600F124080168880693
:1006000004D5E06921F01001216000E00120A8423A
:1006100001DD471B00E00027A1697A1902EB090000
:10062000081AA0612078C00602D42046FFF742FED7
:10063000002608E0D4E901211AF806009047206A54
:10064000401C761C20624E45F4DB2078C0060AD59B
:100650002046FFF72FFE06E0D4E901213020904725
:10066000206A401C2062381EA7F10107F4DC07E075
:10067000D4E9012118F805009047206A401C206247
:10068000281EA5F10105F3DC2046FFF729FE20789E
:10069000000602D50220BDE8F0870120FBE7704785
:1006A0002DE9FF4F0C461E464FF0FF378BB0D2E9C5
:1006B0000001DDF860800A908A46C1F30A5505B949
:1006C0003D46002108464FF00000BAF1000F00F44B
:1006D000400005DA00EB80004FF4400101EA5000D1
:1006E0004FEA9059B9F1010F00DDB9460A9850EA76
:1006F0004A000ED044F61050A5F2FF3545432F14A2
:10070000B8F1000F1ED07542291E1EDDC9F100028E
:100710001CE0B8F1010F4FF0000001D0302103E0E0
:10072000F24305E02154401CB042FBDB304600227E
:10073000002121540B99C1F80880C1E900200FB0B5
:10074000BDE8F08FBD1B6D1CDEE74A4600DA69424A
:1007500006A800F063FA06AB93E8070003AB83E852
:10076000070050460A9900F044FB8DE80700A0F509
:1007700000501F3800900398002D0ADD42F21F013F
:100780004A460844002303A90390684600F0ADFDE3
:1007900009E0A0F500504A461F38002303A9039042
:1007A000684600F0B7FD8DE807000004000C03D098
:1007B0004FF0FF30410800E01046B8F1000F03D0C1
:1007C0000022009215461EE0751E05D400F0A0F927
:1007D000303262556D1EF9D5B3460122084302D06E
:1007E00000227F1C04E02078302801D100227F1EE7
:1007F000002A099784D01DE0112D07DA00F088F94E
:10080000303262556D1C50EA0102F5D1084302D026
:100810000098C8B10EE00021681E05E0235C625C10
:1008200063542254401E491C8142F7DBAB46A81B8F
:10083000401E0990002004F80B000B98099AC0F89C
:100840000880C0E9002B7AE711264FF0000857E72F
:100850002DE9F04F88460446D21D22F0070191B0E1
:10086000D1E90001CDE90A0103F08FFB02460B98A4
:10087000C00F01D02D2007E02068810701D52B2073
:1008800002E0202101EAC000032A099001D0072AD2
:1008900005DB03464146204600F080F90BE1207855
:1008A000800601D5E06900E00620B8F1650F8146B9
:1008B00006D0B8F1660F18D0B8F1670F70D131E0EB
:1008C0000020B9F1110F009001DB112301E009F1C3
:1008D00001030AAA01A90CA8FFF7E2FEDDE90C70EA
:1008E000002609F10105834647E001204B460090B0
:1008F0004FF000470AAA01A90CA8FFF7D1FEDDE9D5
:100900000DB00C995D46002610B909F101000D18D3
:10091000B9EB050003D4C0F1FF3609F10105A5EBE1
:1009200009002BE0B9F1010F01DA4FF001090020B5
:10093000B9F1110F0090484601DD112300E0034694
:100940000AAA01A90CA8FFF7ABFEDDE90C704D4621
:1009500000268346207800070AD4AB4500DA5D46BE
:1009600001A8012D04DD411911F8011C302907D01F
:100970004F4502DA17F1040F04DA012082460FE036
:100980006D1EEEE7002F02DCED1B3E4403E0781CF9
:10099000A84200DD7D1CB81B00F1010A4FF00047A2
:1009A0002078000703D4AA4501DB4FF0FF3A00216D
:1009B000B7F1004F0DF143088DF8431024D0022009
:1009C0002B23002F01DA7F422D230A21021EA0F1E2
:1009D000010000DC5FB197FBF1FC97FBF1F201FB3A
:1009E0001C7C17460CF1300C08F801CDEEE7A8F19D
:1009F000010003702188090501D5452100E065212A
:100A0000A0F1010800F8011C09980FA9A1EB080743
:100A1000FF1D00B10120411901EBEA70A1693844C2
:100A2000081A401EA0612078C00602D42046FFF7B5
:100A300041FC099828B1D4E901219047206A401C63
:100A400020622078C00622D52046FFF733FC1EE046
:100A5000002E04DBB34502DD01A8805D00E03020FC
:100A6000D4E901219047206A401C2062761CAAF13B
:100A700001005FEA000A0AD100F046F8C068016888
:100A8000405CD4E901219047206A401C2062281E66
:100A9000A5F10105DCDC07E0D4E9012118F8010B20
:100AA0009047206A401C2062381EA7F10107F3DC42
:100AB0002046FFF715FC032011B041E601694A1CEE
:100AC00002610878704700B58FB0CDE9013100218F
:100AD000059105497944CDE9031011466846FFF7B1
:100AE0004DFC0FB000BD0000E5FFFFFF0A6802F8F3
:100AF000010B0A607047D1E900239A4202D2531CCD
:100B00000B6010707047000000487047841100208F
:100B100030B5B0F10A024FEA900E71F100034EEACF
:100B2000817EB0EB0E0061EB91014FEA101E4EEAA0
:100B3000017E10EB0E0041EB11114FEA102E4EEA30
:100B4000016E10EB0E0041EB11214FEA104E4EEA00
:100B5000014E10EB0E0041EB1141401841F1000134
:100B60004FEAD00040EA41704FEAD10110EB800516
:100B70004FEA810444EA907444EB01046D1944EB9C
:100B80000404521BA3414FF0000348BF0A3200D5B2
:100B900030BD401C41F1000130BD00002DE9F041A5
:100BA0001F46044603260168072A01F4006004DB9F
:100BB00008B116A505E016A503E008B115A500E0EB
:100BC00015A521F010002060A069C01EA0610FB122
:100BD000401EA0612046FFF76DFB4FB1D4E9012113
:100BE00038469047206A401C2062C01C206206E004
:100BF000206AFAE7D4E9012115F8010B9047761E27
:100C0000F8D22046FFF76CFBBDE8F0814E414E0064
:100C10006E616E00494E4600696E66002DE9F04730
:100C2000814616468AB0354878440DC88DE80D00D7
:100C300032487844801C03AC0DC884E80D0041F6AE
:100C40009B300844372190FBF1F290FBF1F5A5F1C0
:100C5000800501FB12041B3C02D56442012000E028
:100C60000020DFF898A080460027FA44AAF1BE0AC7
:100C70000EE0E0070AD03246684607EB4701012341
:100C80000AEB810100F046FB8DE8070064107F1C31
:100C9000002CEED1194F7F44AE3F19E0E80715D084
:100CA00007EB04100DF1180A90E80E008AE80E0018
:100CB000C068F04201D1981908903246012306A974
:100CC00003A800F027FB03AB83E807006D10641C4A
:100CD000002DE3D14FF0010332466946B8F1000F11
:100CE00003A802D000F001FB01E000F013FBC9E90A
:100CF0000001C9F808200AB0BDE8F0878847000065
:100D000000487047641100207546FFF7F9FFAE46B2
:100D100005006946534620F00700854618B020B507
:100D2000FFF79CFABDE820404FF000064FF00007A7
:100D30004FF000084FF0000B21F00701AC46ACE883
:100D4000C009ACE8C009ACE8C009ACE8C0098D46F0
:100D5000704710B50446AFF300802046BDE8104050
:100D6000FFF71BBA4FF0013C50F8042B51F8043B3D
:100D70009A4221D1A2EB0C03934313EACC1317D16F
:100D800050F8042B51F8043B9A4215D1A2EB0C0306
:100D9000934313EACC130BD150F8042B51F8043BC6
:100DA0009A4209D1A2EB0C03934313EACC13DBD094
:100DB0004FF00000704700BFD01A01BAB1FA81F1BC
:100DC00001F0180122FA01F0CB40C1F12001DBB2A1
:100DD000C0B2C01A2CFA01F3D11A914311EAC3111F
:100DE000E6D1704701491820ABBEFEE7260002009D
:100DF00070475FEA400C08BF91F0000F4FEA8C2368
:100E00004FEAC12243EA51514FEA1C5018BF00F586
:100E1000F0404FEA300018BF41F000415FEA6C5CDF
:100E200000F02980BCF1FF3F08BF40F080407047D0
:100E3000130C06BF12044FF0100C4FF0000C130EF1
:100E400004BF12020CF1080C130F04BF12010CF1C5
:100E5000040C930F04BF92000CF1020CD30F04BFDB
:100E600052000CF1010C11464FF00002A0F11F00DE
:100E7000A0EB0C00704711F0004F08BF704731F035
:100E800000413FF4D5AF0B0C06BF09044FF0100C26
:100E90004FF0000C0B0E04BF09020CF1080C0B0FF5
:100EA00004BF09010CF1040C8B0F04BF89000CF185
:100EB000020CCB0F04BF49000CF1010CCCF1200354
:100EC000A0EB0C0022FA03F302FA0CF241EA030150
:100ED00000F10100704720F07F4C80EA030023F00E
:100EE0007F47ACEB070303F57C5300F0004003F1B0
:100EF000FF032DE980494FEA154B09B44FEA14432B
:100F000025EA0B4E24EA03480FF2042606EB1327CA
:100F100049083E785FEA320203FB0667C7F500071F
:100F200007FB06F64FEA54374FEAD64606F10206AB
:100F300007FB066CCCF1005C4FEA1C472CEA074C1F
:100F400007FB06F40CFB06F504EB15464FEA961674
:100F500034BF00204FF000404FEAD13706FB07FCBA
:100F60004FEA1C4C0CFB0BF7D21B03FB0CF761EB9D
:100F700007010CFB0EF7B0EB074072EB17420CFBBE
:100F800008F734BFA2EB0742B2EB074261EB17410F
:100F90004FEA0C444FEA910706FB07FC4FEA1C4C52
:100FA0000CFB0BF7B0EBC74072EB573203FB0CF7AF
:100FB00034BFA2EBC742B2EBC74261EB57310CFB27
:100FC0000EF7B0EBC70072EB57720CFB08F734BF9B
:100FD000A2EBC702B2EBC70261EB5771039F4FEA66
:100FE000816141EA921104EBCC044FEAD1374FEA18
:100FF000826206FB07FC42EA90124FEA80604FEAE9
:101000001C4C0CFB0BF7D21B03FB0CF761EB07012D
:101010000CFB0EF7B0EB074072EB17420CFB08F726
:1010200034BFA2EB0742B2EB074261EB17414FEA34
:101030008C554FEA910704EB9C2406FB07FC4FEA12
:101040001C4C0CFB0BF7B0EBC74072EB573203FBA9
:101050000CF734BFA2EBC742B2EBC74261EB57318A
:101060000CFB0EF7B0EBC70072EB57720CFB08F7E6
:1010700034BFA2EBC702B2EBC70261EB577115EBAD
:101080004C254FEA816141EA92114FEA82624FEAB0
:10109000D13742EA901206FB07FC44F100044FEA04
:1010A00080604FEA1C4C0CFB0BF7D21B03FB0CF7C8
:1010B00061EB07010CFB0EF7B0EB074072EB174238
:1010C0000CFB08F734BFA2EB0742B2EB074261EB1F
:1010D000174115EB1C154FEA813141EA92414FEA65
:1010E000823242EA90424FEA80304FEA0C7644F175
:1010F000000448EA03434EEA0B484FF0000EB2EBFF
:10110000080C71EB030724BF624639464EEB0E0E06
:101110004FF0000B0018524149414BEB0B0BB2EB67
:10112000080C71EB03077BF1000B24BF62463946C4
:101130004EEB0E0E4FF0000B0018524149414BEBA5
:101140000B0BB2EB080C71EB03077BF1000B24BF18
:10115000624639464EEB0E0E51EA020718BF46F0C2
:10116000010616EB0E7655F1000254F1000103D58D
:10117000BDE88901BDE80088BDE88901BDE80048F7
:10118000B619524141EB0101A3F101037047808080
:101190007F7E7D7C7B7A79787776767574737271D1
:1011A00071706F6E6E6D6C6C6B6A6A696868676689
:1011B00066656464636362616160605F5F5E5E5D1B
:1011C0005D5C5C5B5B5A5A5959585857575656558F
:1011D00055555454535352525251515050504F4FF1
:1011E0004F4E4E4D4D4D4C4C4C4B4B4B4A4A4A4941
:1011F0004949484848474747474646464545454484
:101200004444444343434342424242414141002B10
:101210009C4630D477002BD01CB54FEA370703B477
:101220004FF010004FF01001BAF1000F06D0BCF1E2
:10123000000FDCBF40F0080040F008014FF0000054
:101240000FBCBDE810400BF1010BBBF1010F08BF53
:101250005FEA170722BF12F1010211F101014FF0FD
:10126000004143F1000300F0004043EA00007047F2
:10127000F9D35708D0E746EA064613F1400F4FEA84
:1012800016461FDD13F1200FDFBF16430A4600216B
:1012900020335B42BED0C3F1200746EA064602FA7D
:1012A00007F74FEA164646EA0706C3F1200722FA77
:1012B00003F201FA07F721FA03F14FF0000342EAC3
:1012C0000702A7E746EA020646EA06464FEA16463E
:1012D00046EA0106BCBF46EA0646360C4FF000035C
:1012E0004FF000024FF0000194E72DE9804C9A4640
:1012F000934670B491E8380007C831EA400C48BF03
:1013000034EA430C03D5FFF7E6FDFFF780FFF0BC9E
:10131000BDE8008C2DE9804C9A46934670B491E864
:10132000380007C810F0804F08BF13F0804F03D17A
:1013300000F005F8FFF76BFFF0BCBDE8008C20F073
:101340007F4780EA030023F07F4C07EB0C03A3F5F3
:101350007C5300F00040A3F1FE0392F0000F00F078
:10136000B38095F0000F00F077802DE901494FEA36
:1013700011404FEA144621EA004800FB06FC24EA2B
:10138000064708FB06F607FB08F800FB07F718EB13
:1013900006484CEB164C4FEA124B18EB07484FEA45
:1013A00015464CEB174022EA0B4E0BFB06FC25EAD8
:1013B00006470EFB06F607FB0EFE0BFB07F71EEBC0
:1013C000064E4CEB164C4FF000061EEB074E4CEB56
:1013D000174B18EB0B0840F1000018EB0E0B58EB05
:1013E000000840F100008F1A4FF000013CBFC943D4
:1013F000661B14BFB5EB040C00213CBFC943F61BB0
:101400004FEA17444EEA8E0E27EA04454FEA1C477E
:1014100004FB07622CEA074C05FB07F70CFB05F6FB
:1014200004FB0CFC16EB074642EB174216EB0C468E
:1014300042EB1C421BEB060658EB0202414146EA16
:101440009E0601D5BDE80189B619524141EB010163
:10145000A3F10103BDE801894FEA14454FEA1147A2
:1014600024EA054621EA074C05FB07F406FB07F7CB
:101470000CFB06F105FB0CFC11EB074144EB174498
:101480004FEA124711EB0C4144EB1C4422EA074C93
:1014900005FB07F206FB07F70CFB06F605FB0CFC49
:1014A00016EB074642EB174216EB0C4642EB1C4587
:1014B0006A1854F1000148BF7047B619524141EB18
:1014C0000101A3F10103704795F0000F37D04FEAF7
:1014D00011424FEA144721EA024624EA074C02FB74
:1014E00007F106FB07F70CFB06F402FB0CFC14EB00
:1014F000074441EB17414FEA154714EB0C4441EB0D
:101500001C4125EA074C02FB07F506FB07F70CFB1D
:1015100006F602FB0CFC16EB074645EB174516EBEF
:101520000C4645EB1C42121951F1000148BF7047AF
:10153000B619524141EB0101A3F1010370474FEA93
:1015400014454FEA114724EA054621EA074C05FBFA
:1015500007F106FB07F70CFB06F24FF0000605FB50
:101560000CFC12EB074241EB174112EB0C4251EB22
:101570001C4148BF7047921841EB0101A3F10103E0
:1015800070470000014800F048B90000A8000020A2
:1015900070B5044600688168C943C90717D18168DE
:1015A00021F00101816000F099FD05460AE000BFCD
:1015B00000F094FD401B022804D920688068C043D5
:1015C000C00706D020688068C043C007F0D0002064
:1015D00070BDA06A40F01000A062E06A40F0010017
:1015E000E062012070BD10B50146406A826A12F0C7
:1015F000500F05D0006A026BBDE810400846104746
:10160000816A41F40071816201688968C1F34241D5
:1016100007290CD1017B51B9816A21F48071816263
:10162000816AC90403D4816A41F00101816200F03A
:10163000F1F810BD10B5406A816A41F04001816245
:10164000C16A41F00401C16200F0E6F810BD10B5B6
:10165000406A00F0E0F810BDF8B500260446009698
:1016600000688168C943C9072DD0816841F0010134
:101670008160164816490068B0FBF1F000E0401E9A
:1016800000900028FBD100F029FD054616E000BFC0
:1016900000F024FD401B022810D920688068C04358
:1016A000C0070BD0A06A40F01000A062E06A40F0D2
:1016B0000100E06284F824600120F8BD20688068A1
:1016C000C043C007E4D10020F8BD00003C0000206A
:1016D00040420F00FEE70000014800F0E3BA0000BE
:1016E000DC01002030B590F840500124AC40C56BBF
:1016F0006C60046863604368102B036803D09960D2
:101700000068C26030BD9A600068C16030BD70473B
:1017100072B6FEE770470000F8B50024009490F818
:1017200024202546012A12D0012280F824204A686C
:101730001F23072A0DD20668776B521E02EB820226
:1017400093409F430B6893401F43776319E0022047
:10175000F8BD06680D2A0AD2376BD21F02EB82024F
:1017600093409F430B6893401F43376309E0F76A38
:101770000D3A02EB820293409F430B6893401F4354
:10178000F7620A68072306680A2A0AD3F7680A3A42
:1017900002EB420293409F438B6893401F43F760E4
:1017A00008E0376902EB420293409F438B68934005
:1017B0001F4337610A68102A01D0112A20D1124B29
:1017C00002689A4217D193681B0219D4936843F4B4
:1017D000000393600968102912D10C490C4A09686A
:1017E000B1FBF2F101EB8101490000E0491E0091DB
:1017F0000029FBD104E0816A41F0200181620124CB
:1018000080F824502046F8BD002401403C00002010
:1018100040420F0070477047704770B5044600683B
:1018200006684568A90625D5B10723D5A16AC9066A
:1018300003D4A16A41F40071A1628168C1F34241FD
:10184000072910D1217B71B9416821F02001416045
:10185000A06A20F48070A062A06AC00403D4A06AC9
:1018600040F00100A0622046FFF7D4FF21686FF02E
:101870001200086028062ED570072CD5A06AC00675
:1018800003D4A06A40F40050A06220688168C1F3CC
:101890000231072909D04168490515D48168C1F38F
:1018A0004241072910D1217B71B9416821F08001A3
:1018B0004160A06A20F48050A062A06AC00503D4F1
:1018C000A06A40F00100A0622046FFF723FF2168D4
:1018D0006FF00C00086068060CD5F0070AD0A06A0B
:1018E00040F48030A062204600F094F821686FF048
:1018F0000100086070BD00002DE9F0414FF00007C5
:1019000004003D467ED0A06A002628B9E66284F82D
:101910002460204600F080F82046FFF739FEA16AD7
:10192000C90600D420B1A06A40F01000A06269E0AE
:10193000A16A21F4885141F00201A1626268E16963
:10194000237B0A4347EA43010A43A1684FF48077A7
:10195000B94209D0012907D05FF0000194F814C002
:10196000BCF1010F02D00AE03946F7E7F3B1A36AF0
:1019700043F02003A362E36A43F00103E3622368B8
:10198000D3F804C02CF4694C4CEA010CC3F804C031
:1019900021688B68DFF870C003EA0C0313438B6087
:1019A000A168B9420BD0012909D00CE0DFF85CC076
:1019B000A3690CEB43330B4343F40061DFE7218A57
:1019C0000D05A5F580152168CB6A23F470032B4320
:1019D000CB62216889680E4B1940914208D1E662BA
:1019E000A16A21F0020141F00101A162BDE8F0818C
:1019F000A06A20F0020040F01000A062E06A40F00F
:101A00000100E0620120F1E7FDF7E1FF00E0FFFFE8
:101A1000FE0E1FFF7047000070B586B00025064619
:101A2000009501950295039500681E49884236D1BC
:101A30001D49886940F400708861886900F400706D
:101A40000490886940F0040088618869694600F064
:101A5000040004900120009003200190134800F03E
:101A600043FA144C1248C4E900058020C4E902502E
:101A700040002061800060612020C4E90605204606
:101A800000F0BAF908B1FFF743FE346200220521E5
:101A90001220666200F026FD122000F015FD06B04F
:101AA00070BD000000240140001002400008014009
:101AB00008000240DC0100202DE9F0478946044679
:101AC0003B4900683B4F0E1D9046884201D0B8420A
:101AD00007D1306810F4702F03D001252846BDE8E7
:101AE000F08794F8240001280CD0012084F8240009
:101AF0002046FFF7B1FD05004FF0000004D084F848
:101B00002400EBE70220EAE7A16A40F60162914374
:101B100041F48071A1622168B94218D1326812F48F
:101B2000702F14D0A16A41F48011A1623168490577
:101B300005D5A16A21F4005141F48051A162A16A46
:101B4000C9040AD5E16A21F00601E16206E0A26A51
:101B500022F48012A2624968E9E7E06284F8240076
:101B6000216A15488862216A1448C862216A1448AB
:101B7000086321686FF0020008602068816841F402
:101B800080718160216843464A464C31206A00F0EA
:101B900061F920688168C1F342410729816803D057
:101BA00041F48011816099E741F4A001FAE7000057
:101BB0000024014000280140E71500084F160008E6
:101BC0003516000810B590F821100022022905D022
:101BD0000421816380F82020012010BD01680B687A
:101BE00023F00E030B6001680B6823F001030B6008
:101BF00090F84030C46B012101FA03F3636080F870
:101C0000211080F82020104610BD000010B590F87B
:101C100021100024022903D00421816301243DE026
:101C200001680A6822F00E020A6001680A6822F060
:101C300001020A601A4A0168914201D1012121E0A2
:101C4000174A1432914201D110211BE0144A283264
:101C5000914201D1891515E0114A3C32914201D1DE
:101C600089140FE00E4A5032914202D14FF4803174
:101C700008E00B4A6432914202D14FF4801101E036
:101C80004FF08071064A083A5160012180F8211016
:101C9000002180F82010416B01B18847204610BD1B
:101CA000080002402DE9F05FC16B0C6801680B6809
:101CB000D0F840C0042202FA0CF2494DDFF824A10A
:101CC000494E4A4FDFF828B1DFF828E122422CD0F4
:101CD0005A072AD50A68920603D40A6822F0040239
:101CE0000A600168A94201D1042219E0514501D1DD
:101CF000402215E0B14202D14FF4806210E0B942B7
:101D000002D14FF480420BE0594502D14FF48022BA
:101D100006E0714502D14FF4800201E04FF080628D
:101D20002F4908394A60C16A3BE04FF0020808FABF
:101D30000CF818EA040F4FF000094FF0010235D0FB
:101D40005FEA837832D50B689B0605D40B6823F0D5
:101D50000A030B6080F821200168A94201D1022208
:101D600019E0514501D1202215E0B14202D14FF4D2
:101D7000007210E0B94202D14FF400520BE0594515
:101D800002D14FF4003206E0714502D14FF4001247
:101D900001E04FF00072124908394A6080F8209043
:101DA000816A00291AD0BDE8F05F0847082505FAC6
:101DB0000CF5254212D01B0710D50B6823F00E033B
:101DC0000B6090F84010C36B02FA01F15960826316
:101DD00080F8212080F82090016BE2E7BDE8F09FB9
:101DE000080002401C000240300002404400024053
:101DF000580002406C00024030B528B308C81349AF
:101E000014221944B1FBF2F18900C16310498163C6
:101E1000022141771A6843F6F0718A43D0E9001431
:101E20002143D0E902452C432143046921434469FD
:101E30002143846921431143196000214163012238
:101E400042770177084630BD012030BDF8FFFDBF65
:101E50000000024070B5044690F8200000250128DB
:101E60000CD0012084F8200094F821600020012E7D
:101E700006D084F820000225284670BD022070BDDF
:101E8000022684F82160A0632068066826F0010617
:101E900006602046FFF726FCE06A002820680168FB
:101EA00002D041F00E0106E021F00401016020683B
:101EB000016841F00A0101602068016841F00101F8
:101EC0000160D9E770B5044600F008F90546601CCA
:101ED00002D004480078044400F000F9401BA042FE
:101EE000FAD370BD300000202DE9F84FDFF8B8912B
:101EF0000024A9F1040B23460F2709F1040AABF1D2
:101F0000040EC9E00125A5402A40AA427DD1674EB2
:101F1000D1F804C0ACEB0608B44532D014DCBCF1F7
:101F2000030F3AD009DCBCF1000F2AD0BCF1010F3D
:101F30001CD0BCF1020F31D11DE0BCF1110F17D044
:101F4000BCF1120F2AD119E0B8F5881F19D006DCB0
:101F5000B8F5803F15D0B8F5801F1FD111E0B8F556
:101F6000001F0ED0B8F5041F18D10AE0CB6815E0A9
:101F7000CB681B1D12E0CB6808330FE0CB680C3335
:101F80000CE08B682BB1012B4FF0080303D04561A7
:101F900004E0042302E0056100E00023FF2A01D8E9
:101FA000064601E000F104064FEA840501D9A5F1D7
:101FB0002005D6F8008007FA05FC28EA0C0803FA89
:101FC00005F548EA0508C6F800804D68ED0062D5C1
:101FD000374DAE6946F00106AE61AD6924F00306E7
:101FE00005F001050095334D06EB050CDCF80850B3
:101FF000A607360F07FA06F825EA0805DFF8B880C5
:10200000404503D14FF0000817E044E0DFF8AC8012
:10201000404502D14FF001080FE0DFF8A4804045B1
:1020200002D14FF0020808E0DFF89880404502D165
:102030004FF0030801E04FF0040808FA06F848EAF8
:102040000508CCF808804D68D9F80060ED024D46CF
:1020500001D5164300E096432E604D68DAF8006023
:10206000AD02554601D5164300E096432E604D68FB
:10207000DBF80060AD035D4601D5164300E09643F2
:102080002E604D68DEF80060ED03754601D51643FD
:1020900000E096432E60641C0D682A46E5407FF4FC
:1020A00031AFBDE8F88F00000804014000001110B6
:1020B000001002400000014000080140000C0140F7
:1020C00000100140001401408068084000D0012049
:1020D00070470AB1016170470904FBE70148806855
:1020E000704700003000002070B5040025D094F83F
:1020F0003D00002520B984F83C50204600F04EF900
:10210000242084F83D002068016821F0010101606D
:102110002068016841F4004101602068016821F4F1
:102120000041016000F01CFB4D4A6168914201D8FA
:102130004C4900E04C49884201D2012070BD4B4916
:102140002368B0FBF1F15E6826F03F060E435E6047
:102150006368934206D94FF4967359434FF47A73E8
:10216000B1FBF3F12368491C1E6A26F03F06314398
:1021700019626168914210D84900401EB0FBF1F22B
:10218000521CC2F30B02042A01D2042022E0B0FB4D
:10219000F1F0401CC0F30B001CE0A268F2B301EBAD
:1021A000C10303EB0116431EB3FBF6F35B1C43F4C0
:1021B00080431B0549D092B301EBC10202EB011130
:1021C000401EB0FBF1F0401CC0F30B0040F4804017
:1021D00040F400402168CA694CF6FF739A431043EB
:1021E000C861D4E9071001432068026822F0C002E8
:1021F00011430160D4E9030101432068826848F279
:10220000FF339A4311438160D4E9050108432168F3
:10221000CA6822F0FF021043C86001E00EE016E039
:102220002068016841F0010101602564202084F8E4
:102230003D00256384F83E50002070BD01EB41064F
:10224000431EB3FBF6F35B1CB3E70120C2E701EBCF
:102250004101401EB0FBF1F0401CC0F30B00B7E79A
:10226000A086010080841E0000093D0040420F004E
:102270002DE9F84F1F4690468A460446DDF828901F
:10228000FFF72CFF054694F83D0020287FD1192345
:10229000012240492046009501F07CF8002876D1C3
:1022A00094F83C00012872D0012084F83C0020689A
:1022B0000168C90703D1016841F00101016020688C
:1022C000016821F400610160212084F83D001020A4
:1022D00084F83E0000262664C4F824806785608D5B
:1022E00020852D48E0622B464A465146204600F0A4
:1022F000D7FF90B9206841698069009036E02A468E
:102300004946204601F0ECF850B1206C042804D175
:102310002068016841F4007101600120BDE8F88F78
:10232000606A216800780861606A401C6062618DA3
:10233000491E6185218D491E89B221852268536914
:10234000DB435B070BD451B100781061606A401C1D
:102350006062608D401E6085208D401E20852A466B
:102360004946204600F0EAFF0028CED1208D002803
:10237000C5D154F83D0B016841F400710160202083
:1023800004F81E09E67766770020C7E7FFE702201A
:10239000C4E70000020010000000FFFF10B586B087
:1023A0000021009101910291039100681349884234
:1023B00022D1134CA06940F00800A061A0696946D1
:1023C00000F0080004904FF440700090122001903B
:1023D000032003900B48FFF787FD0B48416841F04D
:1023E000E06141F002014160E06940F40010E06109
:1023F000E06900F40010049006B010BD00540040E5
:1024000000100240000C01400000014002488168B9
:10241000027811448160704730000020074810B5F1
:10242000016841F010010160032000F07BF80F20EB
:1024300000F006F800F024F8002010BD0020024053
:1024400070B50D4D04464FF47A712878B1FBF0F069
:102450000A490968B1FBF0F000F058FB48B9102CAC
:1024600007D200222146501E00F03CF800206C608C
:1024700070BD012070BD0000300000203C00002035
:102480000F4808B5816941F001018161816901F05E
:1024900001010091C16941F08051C161C069002210
:1024A00000F0805000900F21901E00F01BF80548AE
:1024B000416821F0E06141F00071416008BD000019
:1024C0000010024000000140002809DB00F01F025C
:1024D000012191404009800000F1E020C0F8001186
:1024E00070470000F0B40E4B1B680C46C3F3022388
:1024F000C3F10705042D00D90425191D072901D2B0
:10250000002300E0DB1E012606FA05F1491E2140EA
:1025100099409E40761E16403143F0BC01F049BD03
:102520000CED00E0064900F0070208684FF6FF03D3
:10253000184040EA0220034A104308607047000038
:102540000CED00E00000FA052DE9F843054600789F
:10255000354CC00754D0E0690026C00008D4E069BB
:1025600040F08050E061E069012600F0805000906A
:102570002E480168C90512D40168804641F4807173
:102580000160FFF7ABFD074605E000BFFFF7A6FDC2
:10259000C01B642823D8D8F80000C005F6D5206AEF
:1025A00010F4407021D0A98801F4407181421CD000
:1025B000206A1F49012220F440700A6000220A604C
:1025C0002062C00711D0FFF789FD074641F2883825
:1025D00008E000BFFFF782FDC11B414502D903207F
:1025E000BDE8F883206A8007F4D5206A696820F482
:1025F0004070084320621EB1E06920F08050E06125
:102600002878800705D56068A96820F44040084311
:1026100060602878C00605D56068E96820F480000D
:10262000084360600020DBE70010024000700040BB
:10263000400442422DE9F0470F46050061D0434E69
:10264000306800F00700B84209D2306820F0070077
:1026500038433060306800F00700B84251D1286834
:102660003B4C810712D5400703D5606840F4E06019
:1026700060602878000703D5606840F460506060AF
:102680006068A96820F0F000084360602878C007FF
:1026900028D06868012810D02168022810D0890746
:1026A00000292EDA616821F0030101436160FFF720
:1026B00015FD804641F288390DE021688903EFE776
:1026C0008901EDE7FFF70AFDA0EB0801494502D9B2
:1026D0000320BDE8F0876068696800F00C00B0EB8B
:1026E000810FEFD1306800F00700B8420BD9306895
:1026F00020F0070038433060306800F00700B8422F
:1027000001D00120E5E72878400705D56068E96831
:1027100020F4E060084360602878000706D5606810
:10272000296920F4605040EAC100606000F038F888
:102730006168084AC1F30311515CC840064908604A
:1027400006480068FFF77CFE0020C2E70020024038
:10275000001002401E5300083C00002034000020FE
:102760000448054900684968044AC1F30221515CE4
:10277000C84070473C000020001002402E53000863
:102780000448054900684968044AC1F3C221515C04
:10279000C84070473C000020001002402E53000843
:1027A0000E4A51680E4801F00C03042B11D0082B7F
:1027B0000FD10C48C1F38343C903C05C0AD55168EB
:1027C000084AC1F34041921E515C054A5043B0FB98
:1027D000F1F0704704494843704700000010024080
:1027E00000127A000E53000800093D002DE9F84F51
:1027F000040070D02078C04DC00749D06868C0F38D
:102800008100012807D06868C0F38100022809D13F
:102810006868C00306D52868800339D56068002839
:10282000E7D035E06068B0F5803F0BD010B1B0F56F
:10283000A02F11D0286820F480302860286820F468
:10284000802002E0286840F480302860606890B101
:10285000FFF744FC06460AE0286840F48020286020
:10286000F0E700BFFFF73AFC801B642873D82868A4
:102870008003F7D50CE0FFF731FC064605E000BF0A
:10288000FFF72CFC801B6428F0D828688003F7D45D
:1028900020789A4E80074FF001094FF0000839D593
:1028A000686810F00C0F07D06868C0F38100022838
:1028B00009D16868C00306D42868800714D5206948
:1028C000012808D110E02069B0B1C6F80090FFF7E8
:1028D00005FC074605E00AE1FFF700FCC01B0228E3
:1028E000C4D828688007F7D52868616920F0F80007
:1028F00040EAC10028600DE0C6F80080FFF7EEFB5B
:10290000074604E0FFF7EAFBC01B022823D828682B
:102910008007F7D4207800072CD57948A169D9B170
:10292000C0F80090FFF7DAFB074604E0FFF7D6FB9C
:10293000C01B02280FD8686A8007F7D571484FF48A
:10294000FA510068B0FBF1F0009000BF0098411E02
:102950000091FAD20EE080E0C0F80080FFF7BEFBE5
:10296000074604E0FFF7BAFBC01B022875D8686A67
:102970008007F7D42078400760D5E8690027C000B9
:1029800008D4E86940F08050E861E869012700F068
:10299000805000905C480168C90513D401688346E3
:1029A00041F480710160FFF799FB824606E000BFA9
:1029B000FFF794FBA0EB0A0064284ED8DBF8000078
:1029C000C005F5D5E06801280AD008B1052813D064
:1029D000286A20F001002862286A20F0040002E042
:1029E000286A40F001002862E06841F2883B98B113
:1029F000FFF774FB82460BE0286A40F0040028626F
:102A0000EEE700BFFFF76AFBA0EB0A0159455AD871
:102A1000286A8007F6D50CE0FFF760FB824605E0E8
:102A2000FFF75CFBA0EB0A0159454CD8286A8007E8
:102A3000F6D41FB1E86920F08050E861E06988B3FE
:102A40006968C1F38101022944D00228C6F8608078
:102A500004D0FFF743FB044638E034E0FFF73EFBC9
:102A6000074604E0FFF73AFBC01B02282BD8286872
:102A70008001F7D4206AB0F5803F05D16868A1686D
:102A800020F4003008436860D4E90801084369680D
:102A900021F4741108436860C6F86090FFF71EFBCC
:102AA000044606E025E000BFFFF718FB001B0228E4
:102AB00009D828688001F7D51BE000BFFFF70EFB9F
:102AC000001B022802D90320BDE8F88F2868800186
:102AD000F4D40EE00128F7D06868226A00F480314F
:102AE000914204D1616A00F47010884201D0012043
:102AF000EAE70020E8E70000001002400000424240
:102B0000800442423C0000200070004010B5401E8E
:102B1000B0F1807F01D3012010BD4FF0E02460614F
:102B20000F21601701F045FA0020A0610720206105
:102B3000002010BD70B590F83C20012A26D0012459
:102B400080F83C40022280F83D2003685A689D6866
:102B500022F070060A6832435A600D4B02689A42AE
:102B600008D0B2F1804F05D00A4B9A4202D00A4BEE
:102B70009A4204D1496825F080031943916080F896
:102B80003D40002180F83C10084670BD022070BD19
:102B9000002C0140000400400008004000B585B052
:102BA000002100910191029103910068B0F1804FE2
:102BB00010D10948816941F0040181618069694649
:102BC00000F004000490022000900190039003485C
:102BD000FFF78AF905B000BD00100240000801406F
:102BE00070B5044690F83C0000260D4601280FD031
:102BF000012084F83C006AB1042A1DD0082A2FD095
:102C00000C2A3FD00126002084F83C00304670BDDD
:102C1000022070BD206800F0E9FF2068816941F062
:102C2000080181612068816921F0040181612068C7
:102C300081692A69114311E0206800F0FFFF2068D4
:102C4000816941F4006181612068816921F48061BA
:102C50008161206881692A6941EA02218161D2E7A4
:102C6000206801F017F82068C16941F00801C161CE
:102C70002068C16921F00401C1612068C1692A6925
:102C8000114311E0206801F031F82068C16941F476
:102C90000061C1612068C16921F48061C16120685F
:102CA000C1692A6941EA0221C161ACE710B504009B
:102CB00003D094F83D0010B107E0012010BD0020C2
:102CC00084F83C00204600F01FF8022084F83D0004
:102CD000211D206800F040FF012084F8460084F8A0
:102CE0003E0084F83F0084F8400084F8410084F8F6
:102CF000420084F8430084F8440084F8450084F8D6
:102D00003D00002010BD000008B50068B0F1804F04
:102D100008D10548C16941F00101C161C06900F0F5
:102D20000100009008BD00000010024010B50446EC
:102D3000022249B104290ED0082913D094F8410089
:102D4000012816D0012010BD94F83E000128F9D1C9
:102D500084F83E200FE094F83F000128F2D184F877
:102D60003F2008E094F840000128EBD184F840208F
:102D700001E084F841200122206800F029FF0F497A
:102D80002068884203D1426C42F4004242642068C9
:102D9000884208D0B0F1804F05D00949884202D05E
:102DA0000849884204D1816801F00701062903D04F
:102DB000016841F001010160002010BD002C0140BC
:102DC000000400400008004070477047F8B50168F3
:102DD00004460868CA684B6910F00F0F4FF00005F1
:102DE00059D003F0010602F49077374365D0C1074C
:102DF00005D0D10503D5616C41F001016164410743
:102E000005D5D90703D0616C41F0020161648107E7
:102E100005D5D90703D0616C41F004016164010755
:102E200007D502F02001314303D0616C41F0080165
:102E30006164616C00293AD0800604D5900602D501
:102E4000204600F0A4FF20684069616CC0F3801048
:102E5000090700D460B3204600F072FF2068406983
:102E6000400621D52068143050E8001F21F04001B1
:102E700040E80012002AF5D1E06BA8B16D4941632A
:102E8000E06BFEF7C3FE002811D0E06B416B01B090
:102E9000BDE8F040084783060FD593060DD52046C0
:102EA000BDE8F84000F073BF2046FFF78EFFF8BD85
:102EB0002046FFF78AFF6564F8BD266B2023012EAC
:102EC0007CD1C6067AD5D60678D5086848680090C1
:102ED00048694FF00206400640D5E16B086840683B
:102EE0000004000CE8D0A28D8242E5D9E085886913
:102EF00020282DD020680C3050E8001F21F480716C
:102F000040E80012002AF5D12068143050E8001F74
:102F100021F0010140E80012002AF5D120681430A8
:102F200050E8001F21F0400140E80012002AF5D1CE
:102F300084F84230256320680C3050E8001F21F0EF
:102F4000100140E80012002AF5D1E06BFEF73AFECE
:102F50006663A08DE18D401A81B22AE0A08DE18DDB
:102F6000401A81B2E08D0028A6D00029A4D02268A2
:102F70000C3252E8000F20F4907042E80007002F56
:102F8000F5D12068143050E8002F22F0010240E80B
:102F90000027002FF5D184F84230256320680C30DB
:102FA00050E8002F22F0100240E80023002BF5D15A
:102FB00066632046FFF708FFF8BDFFE705062BD53F
:102FC000150629D594F841002128F5D1A068B0F55F
:102FD000805F01D12069B0B1206A411C2162216863
:102FE00000784860E08C401E0004000CE084E3D1CF
:102FF0002068C16821F08001C1602068C16841F08B
:103000004001C160D8E7206A0088C0F3080048602A
:10301000206A801C2062E5E74006CDD55006CBD55E
:10302000CA68204622F04002CA6084F8413000F0AD
:103030001EF9C1E7313D000870B5040004D094F8D2
:103040004100002510B106E0012070BD84F8405019
:10305000204600F023F8242084F841002068C1684D
:1030600021F40051C160204600F0F2FE20680169A1
:1030700021F4904101612068416921F02A014161F8
:103080002068C16841F40051C1606564202084F863
:10309000410084F842006563002070BD30B585B002
:1030A0000024009401940294039400681849884213
:1030B0002CD11848816941F480418161816901F412
:1030C00080410491816941F0040181618069124D60
:1030D00000F0040004904FF4007000900220019072
:1030E0000320039069462846FEF7FEFE2815CDE929
:1030F0000004694628460294FEF7F6FE00220521E8
:103100002520FFF7EFF92520FFF7DEF905B030BDE8
:103110000038014000100240000801402DE9F84F3E
:10312000044690F842009A4616460D46202802D0E2
:103130000220BDE8F88FB5B1AEB100206064222155
:1031400084F842102063FEF7C9FFA6858146E68514
:10315000A0684FF480582027404501D1206920B154
:103160002E46002529E00120E3E7002625E04B4616
:10317000002220212046CDF800A000F0C5FE18B1A5
:1031800084F842700320D4E726B1A06840451AD0E5
:1031900038B108E020684068C0F3080025F8020B49
:1031A00008E0206978B12068406800F07F0000BF27
:1031B00006F8010BE08D401EE085E08D0028D6D199
:1031C00084F84270B5E720684068F1E770472DE960
:1031D000F843044690F84100984616460D462028CC
:1031E00002D00220BDE8F88385B17EB10020606482
:1031F000212084F84100FEF771FFA6848146E68411
:10320000A0682027B0F5805F02D003E00120E9E745
:10321000206910B12E4600250EE000260CE080212A
:10322000204600F071FEA8B9C6B116F8010B21685E
:103230004860E08C401EE084E08C4B464FF000027A
:10324000CDF800800028EAD14FF04001204600F080
:103250005BFE40B184F841700320C3E735F8020BF0
:10326000C0F30800E3E784F841700020BAE7704734
:10327000FEE701684A69D24352050FD46FF48062B9
:103280004A61002140F8301F202242738173026995
:1032900042F0040202610173012070470020704770
:1032A000F8B50446C06A1E460D461746082807D0E2
:1032B000012805D010F5803F02D0206B122804D1E0
:1032C0002068016841F480710160134600224FF0CC
:1032D00001112046009600F05DF840B120680068BA
:1032E000C00502D54FF4007020640320F8BD2069AA
:1032F000B0F5804F0ED00620216800EAD51040F0CE
:10330000F000086133463A460B49204600F08AF83F
:1033100078B902E005F0FE0000E0E8B2216808613B
:10332000054933463A46891F204600F07BF80028BD
:10333000DCD00120F8BD00000800010070B5164681
:103340000D4604461EE02046FFF793FF08B101201A
:1033500070BD681C16D0FEF7C1FE801BA84200D8C5
:1033600085B920684069C04340070BD5002044F868
:10337000300F20216173A073216941F02001216188
:103380002073E4E720684069C0434007DBD4002095
:1033900070BD00002DE9F047984617460D460446DB
:1033A000C1F30746DDF820902AE000BFB8F1FF3FE7
:1033B00026D0FEF793FEA0EB0901414502D8B8F1F3
:1033C000000F1DD12068012E16D0806925EA00006B
:1033D0000004000C12D00020B84211D1002044F8A3
:1033E000300F20216173A073216941F02001216118
:1033F00020730120BDE8F0874069E7E70120EBE793
:103400002068012E0AD0806925EA00000004000C23
:1034100006D00020B842C9D00020EBE74069F3E7AE
:103420000120F7E72DE9F047984616460D46044679
:103430004FF000094FF0200AC1F3074723E020684E
:103440004069C043400515D42068016841F400710B
:10345000016021686FF480604861C4F8309084F89E
:103460003DA084F83E90216C41F00401216484F871
:103470003C9021E0701C06D0FEF730FEA0EB080067
:10348000B04203D816B1012F1FD021E02068012FD0
:1034900015D0806925EA00000004000C18D000BF98
:1034A00044F8309F84F80DA084F80E90216941F013
:1034B0002001216184F80C900120BDE8F08740696B
:1034C00025EA00000004000CEAD12068406901E010
:1034D0002068806925EA00000004000CAFD1ECE709
:1034E00070B516460D4604461EE02046FFF7C1FEA5
:1034F00008B1012070BD681C16D0FEF7EFFD801BDF
:10350000A84200D885B920684069C04300060BD5A1
:10351000002044F8300F20216173A073216941F02D
:10352000200121612073E4E720684069C043000660
:10353000DBD4002070BD10B5012000F043F8BDE8D9
:1035400010400220FEF7BEBC1CB54FF47A70FEF7A7
:10355000B9FC00208DF8040064200090012301AA2A
:103560004E211748FEF784FE6420FEF7ABFC3020A6
:1035700000F028F80520FEF7A5FC302000F022F826
:103580000120FEF79FFC302000F01CF80A20FEF717
:1035900099FC202000F016F8282000F013F80820ED
:1035A00000F010F8012000F00DF80220FEF78AFC70
:1035B000062000F007F80C2000F004F81CBD000005
:1035C000D8000020002100F00BBD012100F008BD53
:1035D00010B5044602E0641CFFF7F7FF20780028CE
:1035E000F9D110BD08B507A202281268009207D2CF
:1035F000102905D21DF800000844C0B2FFF7E2FF11
:1036000008BD000080C00000FEB500241D480094E5
:1036100001941B490294016089158160012505739D
:103620000475032606614FF460214460C161FEF712
:1036300063F908B172B6FEE705200094CDE90150A8
:1036400069461048FEF768F808B172B6FEE7102028
:103650000090022001900720029069460948FEF779
:103660005BF808B172B6FEE71120CDE900066946A5
:103670000448FEF751F8002801D072B6FEE7FEBDFF
:1036800000240140A80000202DE9F04186B000246C
:1036900030480094019402940394816941F0100130
:1036A0008161816901F010010491816941F020017B
:1036B0008161816901F020010491816941F0040177
:1036C0008161816901F004010491816941F008017F
:1036D00081618069012200F008001F4F55030490AA
:1036E00029463846FEF7F5FCDFF8708000220421F9
:1036F0004046FEF7EEFC0095022601250396CDE933
:10370000015469463846FEF7EFFB042700970396FD
:10371000CDE9015469464046FEF7E6FB104E08200D
:10372000CDE90006694602954046FEF7DDFB032021
:103730008DE831000B4D69462846FEF7D5FB009712
:10374000CDE9016469462846FEF7CEFB06B0BDE828
:10375000F08100000010024000100140000801400C
:1037600000001110000C014010B58AB0002407942D
:103770001C2168460894FCF70FFF16484FF0804163
:1037800001604721C0E9011440F2E731C0E90314A8
:103790008461FFF78BFA08B172B6FEE7079407A9B8
:1037A0000C480894FFF7C6F908B172B6FEE760202E
:1037B000CDE9000402940422694606480494FFF708
:1037C0000FFA08B172B6FEE70248FFF7E7F90AB050
:1037D00010BD00002C010020FEE7FEE703221E4979
:1037E0001E48FEF769F91C4CDFF87480DFF874900E
:1037F000DFF874A0DFF874B0A4F120056FF00B07B8
:10380000A08801F083FB0146404601F0BDFA064660
:10381000E860208801F07AFB314601F08BFB3946E5
:1038200001F0FDFC6860608801F070FB314601F03A
:1038300081FB394601F0F3FC0146484601F046FCA5
:10384000514601F0A1FA594601F036FAA8604FF44A
:10385000FA7000F09BFCD3E720000020A8000020B5
:103860009A9999453D0AB73F04E78C3B0000C8414F
:10387000254C264E264D4FF47A7701212846FEF737
:1038800023FCD8B9142000F081FC01212846FEF762
:103890001BFC98B92068C83020602068B84200D965
:1038A000276020683168886302E00A2000F06EFC1F
:1038B00001212846FEF708FC0028F6D00221284600
:1038C000FEF702FCE0B9142000F060FC022128465B
:1038D000FEF7FAFBA0B92068C82802D32068C838D0
:1038E00000E00020206020683168886302E00A2040
:1038F00000F04CFC02212846FEF7E6FB0028F6D03B
:103900000A2000F043FCB8E7000000202C01002052
:10391000000C014092B0FFF717FEFFF70CFE204CA1
:103920000A254FF4FA7620681EA2B0FBF5F31121A8
:1039300002A8FCF7A5FC606801F092F9CDE900014E
:103940001BA2112107A8FCF79BFCA06801F088F9D5
:10395000CDE9000119A211210CA8FCF791FC00216E
:103960000846FFF73FFE02A8FFF732FE09210020BC
:10397000FFF738FE0A482630FFF72AFE0021012013
:10398000FFF730FE07A8FFF723FE0A210120FFF70B
:1039900029FE0CA8FFF71CFE304600F0F7FBC2E73B
:1039A0000000002050574D3A2533752525000000B2
:1039B0004144433A252E326600000000543A252E39
:1039C000316600000024264E8AB0651E2B46012277
:1039D00008A92448FFF7A2FB1F2C08D221499DF813
:1039E000200048310855641CE4B2002008551D48E9
:1039F0001DA14830FCF749FD50B101220421304699
:103A0000FEF767FB1AA11C48FCF751FD1BA113E050
:103A100014481EA14830FCF738FD50B100220421A3
:103A20003046FEF756FB1BA11348FCF740FD1BA1D7
:103A300002E0082CCAD31EA16846FCF738FD684690
:103A4000FCF759FD82B22B4669460648FFF7BFFBDB
:103A50000448002420214830FCF79EFDB6E7000012
:103A600000080140740100204C4544204F4E0000E6
:103A70004C45443A4F4E2000260000204C4544203F
:103A80007475726E6564204F4E0D0A004C454420DB
:103A90004F4646004C45443A4F4646004C4544206C
:103AA0007475726E6564204F46460D0A0000000072
:103AB000556E6B6E6F776E20636F6D6D616E640D0A
:103AC0000A00000010B5FEF7A1FC00F0D7FF0128A6
:103AD00003D0BDE8104000F063BF10BD30B593B017
:103AE00028216846FCF758FD14210AA8FCF754FD6C
:103AF000002501200F9510951195010412958DE870
:103B0000230004904FF4E010CDE90810022407943C
:103B10006846FEF76BFE08B172B6FEE70AA90F20F1
:103B200081E831004FF48060CDE90D0502210AA83B
:103B3000FEF780FD08B172B6FEE74FF40040119029
:103B40000F940FA8FEF700FD002801D072B6FEE723
:103B500013B030BD70470000F0B50268194B1A4C25
:103B60001A4D4FF08047984205D0B84203D0A0428A
:103B700001D0A84203D122F070064A68324398422D
:103B800005D0B84203D0A04201D0A84203D122F40C
:103B90004074CA6822434C6922F0800222430260CA
:103BA0008A68C2620A688262984201D10969016327
:103BB000012141610169C90703D0016921F00101B7
:103BC0000161F0BD002C01400004004000080040ED
:103BD00010B501F01F030121046A99408C4304626F
:103BE000016A9A401143016210BD000030B5036ABA
:103BF000026A22F0010202624268846924F07305BD
:103C00000C682C4323F002058B682B430A4DA84215
:103C10000BD123F00805CB6822F440722B434D6989
:103C200023F0040315438A692A434260846149688A
:103C30004163036230BD0000002C014030B5026AD0
:103C4000036A23F010030362436884690D6824F457
:103C5000E64444EA05248D6822F0200242EA051277
:103C60000B4DA8420ED1CD6822F0800242EA051227
:103C70004D6923F4406343EA85038D6922F04002D5
:103C800043EA85034360846149688163026230BD11
:103C9000002C014030B5036A026A22F4807202628D
:103CA0004268C46923F4007324F073050C682C4344
:103CB0008D6843EA05230C4DA8420ED1CD6823F44C
:103CC000006343EA05234D6922F4405242EA05129B
:103CD0008D6923F4806342EA05124260C461496839
:103CE000C163036230BD0000002C014030B5046A9E
:103CF000026A22F4805202624268C3690D6823F4AA
:103D0000E64343EA05238D6824F4005444EA05346D
:103D1000064DA84204D14D6922F4804242EA851240
:103D20004260C36149680164046230BD002C0140F7
:103D300010B5406A0021C185C184FFF746F810BD67
:103D400001680C3151E8002F22F4907241E8002301
:103D5000002BF5D10168143151E8002F22F0010247
:103D600041E80023002BF5D1016B012909D101683D
:103D70000C3151E8002F22F0100241E80023002B03
:103D8000F5D1202180F8421000210163704708B569
:103D900090F84210222901D0022008BD82684FF419
:103DA00080539A4201D1016921B1816A9A421BD0A4
:103DB0004AB10AE00268816A5268C2F308020A80C6
:103DC000816A891C08E0026972B10268526802F0D7
:103DD0007F020A70816A491C8162C18D491E0904F3
:103DE000090CC18503D01BE002685268F1E7016845
:103DF000CA6822F02002CA600168CA6822F4807290
:103E0000CA6001684A6922F001024A61202180F8F3
:103E1000421000214163026B012A03D0FFF7D6F95B
:103E2000002008BD016301680C3151E8002F22F029
:103E3000100241E80023002BF5D101680A68D20680
:103E400002D50A6849680091818DFEF7BDFFE7E75A
:103E500070B5044600680169E26821F440511143DD
:103E600001612169A0680843616908432168CA6843
:103E700041F20C639A430243CA6020684169A26917
:103E800021F44071114341611E492068884202D1EA
:103E9000FEF776FC01E0FEF763FC00EBC00101EBEE
:103EA0000012606864218000B2FBF0F3B3FBF1F311
:103EB0006FF018067343B2FBF0F5B2FBF0F605EBBA
:103EC0008305322303EB0515B5FBF1F5B6FBF1F6DF
:103ED00005F0F00505EB0615B2FBF0F6B2FBF0F0CD
:103EE000B0FBF1F06FF01802504306EB800003EBDB
:103EF0000010B0FBF1F0216800F00F00284488604A
:103F000070BD0000003801402DE9F843984617467F
:103F10000D460446089E24E0701C22D0FEF7DEF811
:103F2000A0EB0800B0421AD8CEB12068C16849079A
:103F300017D5802D15D0402D13D00168C94309072E
:103F40000FD401680025406800902046FFF7F8FE76
:103F50000820606484F840500120BDE8F883032005
:103F6000FBE72068006835EA000004D00020B84272
:103F7000D2D00020F1E70120F9E700000148FEF768
:103F800025BF000074010020FEE7490050EAC1206F
:103F900018BF04204A0D18BF40F0010040F2FF7224
:103FA000B2EB515F08BF40F00200012808BF0520B6
:103FB00070470907090E002804DB00F1E02080F8B3
:103FC0000014704700F00F0000F1E02080F8141D8D
:103FD000704730380A2801D201207047002070470E
:103FE0001CB500F0F0020007000E42F0080240F09D
:103FF0000800002902D000BF4FF0010142EA010190
:1040000041F004018DF8041003D000BF4FF001010E
:1040100001E04FF0000142EA01028DF8052002D0D4
:104020004FF0010101E04FF0000140EA010141F0D1
:1040300004018DF8061002D04FF0010101E04FF0AD
:10404000000140EA01008DF807004FF0FF300090BA
:104050004FF0040301AA4FF04E010348FEF708F9A0
:104060000120FDF72FFF1CBDD80000209EB0FEF7F9
:10407000D5F9FFF733FDFFF707FB3A48416941F0F7
:10408000010141614069002200F001001C900521FE
:104090000B20FEF727FA0B20FEF716FAFFF7B4FA0B
:1040A00032483149002401603149C0E901144FF41C
:1040B0008041C0E9034144618461C4610462FEF748
:1040C00013F808B172B6FEE7FFF74EFB27482949FF
:1040D0009C3001604FF4E131C0E901140C21C4604F
:1040E000C0E904418461C461FEF7A6FF08B172B65D
:1040F000FEE71E4804215430FEF718FE1E4C2068CF
:104100001A495431096888631C221C496846FCF727
:1041100011FA0021684600F045F8184920611C2278
:104120001C3107A8FCF706FA002107A800F03AF8AE
:10413000124960611C2238310EA8FCF7FBF90021FE
:104140000EA800F02FF80D49A0611C22543115A8CB
:10415000FCF7F0F9002115A800F024F8E06100F068
:104160001CF8FEE70010024000540040D800002078
:10417000A086010000380140000000209C52000889
:1041800001460020842900D0C81C704710B500B932
:10419000012000F01FFB002010BD10B500F040FB17
:1041A000002010BD7FB50D4604464169B0F90800F6
:1041B00081B1A16971B1FFF7E3FFD4E905128DE880
:1041C0000700D4E900102B46226900F02CFC039074
:1041D00004B070BDFFF7D4FF03A9CDE90001208A28
:1041E0002B4682B2D4E9001000F0F0FB012801D088
:1041F0000020EDE70398EBE72DE9F041184C0F465E
:104200000546E6682068001D00F01CFA38B92068F1
:1042100090F82C1001208840216981432161681C9D
:1042200007D137B12168BDE8F0410E48091D00F003
:104230004DBA20683544B5424560216805D2A06B6F
:10424000BDE8F041091D00F029BA606B091D00F0BE
:1042500025FAA06A854200D2A562BDE8F08100007F
:1042600040000020500500202DE9F041054600F0F7
:1042700039FA2E4CA068401CA06020682C4F10B169
:10428000606940B32DE02560A068012829D100268F
:1042900006EB860007EB800000F0F2F9761C072E93
:1042A000F6D323488C3000F0EBF92148A03000F021
:1042B000E7F91F48B43000F0E3F91D48C83000F0BA
:1042C000DFF91B48DC3000F0DBF919488C30606303
:1042D0001430A06305E02068E96AC06A884200D80B
:1042E0002560606A401C6062E96A0120226988409A
:1042F0001043206101EB810007EB8000291D00F0D5
:10430000E5F900F00FFA606900280CD02068E96A2E
:10431000C06A884207D207494FF080500860BFF357
:104320004F8FBFF36F8FBDE8F08100004000002089
:104330007404002004ED00E010B5044690F851002C
:1043400058B101280CD002280FD0502080F31188DA
:10435000BFF34F8FBFF36F8FFEE7206B00F0F6F9CE
:104360002046BDE8104000F0F1B910BD10484FF4F0
:104370004061420706D0C01D0D4920F00700411AD8
:10438000C1F540610B4A00230144C2E9000308392A
:10439000183A21F0070111604B600B600B1AC0E95D
:1043A000001393604FF0004053605061704700006D
:1043B0006405002094000020144E154CA6F1C80797
:1043C0004FF08058DFF84C9012E000BF00F08AF9FF
:1043D000F068C568281D00F035F9A068401EA0608F
:1043E0006068401E606000F09DF92846FFF7A4FF5A
:1043F00060680028EAD138680128F9D9C9F8008036
:10440000BFF34F8FBFF36F8FF2E700003C05002032
:104410004000002004ED00E02DE9F0479A46DDE978
:10442000098481466FF00303206B03EB8202104482
:10443000089E20F00707780707D0502080F31188E6
:10444000BFF34F8FBFF36F8FFEE7002561B10020F0
:1044500023180A5C83F834200A5C12B1401C10282F
:10446000F6D384F8435001E084F83450072E00D38B
:104470000626E662C4E91165201D00F00CF904F17E
:10448000180000F008F92461C6F107006462A06119
:10449000E56484F8505052464946384600F0C0F86A
:1044A0002060B8F1000F01D0C8F80040BDE8F087E7
:1044B00030B5114900E011460A688242FBD34B68CF
:1044C0005C18844203D14068184448600846436839
:1044D0001C18944209D1084C183C2468A24209D007
:1044E00052681A4442600A6812680260814200D031
:1044F000086030BD0460F9E7940000200648416B75
:10450000096829B1416BC968C96849688162704707
:104510004FF0FF31FAE700004000002008484068F3
:10452000401C4FF0500080F3118804D0BFF34F8F30
:10453000BFF36F8FFEE7BFF34F8FBFF36F8FFEE7C1
:104540009C0000202DE9F0410546002700F09EF96F
:10455000324E306808B9FFF709FF706905424ED145
:10456000C5B3083568070ED005F00700C0F1080094
:104570000544680707D0502080F31188BFF34F8FA0
:10458000BFF36F8FFEE72DB37068854237D823489D
:10459000183001460C6801E020460C466168A942CB
:1045A00002D221680029F7D131688C4227D00768F0
:1045B0002168016060680837411B10290FD9601914
:1045C000420708D0502080F31188BFF34F8FBFF30C
:1045D0006F8FFEE713E041606560FFF769FF616878
:1045E0007068401A7060B268904200D2B060706922
:1045F00001430020C4E90001F068401CF06000F0B5
:10460000B1FA780707D0502080F31188BFF34F8F9D
:10461000BFF36F8FFEE73846BDE8F0817C000020D5
:1046200010B5031F4FF080741C601B1F21F00101A7
:104630001960191F024B0B60143940380A6010BD15
:104640001D450008D0E9013201699A60D0E90123D3
:104650005A604A68824201D182684A60002202613F
:104660000868401E0860086870470000034B03603C
:1046700003F1540008608020106070472002002081
:1046800000F108014FF0FF32C0E90112C160016181
:1046900000210160704700210161704730B50B684F
:1046A0005A1C02D000F1080202E0026904E022462E
:1046B000546825689D42FAD953684B6099608A60B6
:1046C000516008610168491C016030BD42684A6060
:1046D00093688B6093685960916008610168491C18
:1046E00001607047502080F31188BFF34F8FBFF3F4
:1046F0006F8F0A494868401C486001280CD108485F
:10470000006810F0FF0F07D0502080F31188BFF32E
:104710004F8FBFF36F8FFEE7704700009C000020B3
:1047200004ED00E00849486828B1401E486001D106
:1047300080F311887047502080F31188BFF34F8FAA
:10474000BFF36F8FFEE700009C00002070B50028CB
:104750002AD0164DA0F1080460686969084207D1A3
:10476000502080F31188BFF34F8FBFF36F8FFEE7A8
:1047700022683AB1502080F31188BFF34F8FBFF306
:104780006F8FFEE78843606000F080F860686968BA
:10479000084468602046FFF78BFE2869401C2861AA
:1047A000BDE8704000F0DEB970BD00007C00002064
:1047B0004FF0E02000210161816105494FF47A72D8
:1047C0000968B1FBF2F1491E41610721016170479F
:1047D0003C00002010B5020014D00F48006B38B127
:1047E000502080F31188BFF34F8FBFF36F8FFEE728
:1047F00000F04CF800211046FFF7FEFC00F0B2F983
:10480000002807D105494FF080500860BFF34F8F53
:10481000BFF36F8F10BD00004000002004ED00E0EA
:1048200010B586B00024039405AA04A903A8049433
:10483000FFF71CFFDDE903010094CDE9011000231F
:104840000EA11048059A00F0EEF80F490028C86242
:1048500011D0502080F31188BFF34F8FBFF36F8FBB
:104860004FF0FF30886201204861CC6006B0BDE89F
:10487000104000F041B806B010BD000049444C455E
:1048800000000000B9430008400000200248016B0E
:10489000491C016370470000400000201448016B70
:1048A00011B10121C16170470021C1610169B1FAF3
:1048B00081F1C1F11F0101EB81020E4951F8223053
:1048C0006BB101EB820101F108034A6852684A604A
:1048D0009A4201D152684A60D16801607047502005
:1048E00080F31188BFF34F8FBFF36F8FFEE7000097
:1048F00040000020740400201CB52649087801906F
:10490000FF20087008788DF800009DF800009DF8E1
:10491000002000F0F000904207D0502080F3118872
:10492000BFF34F8FBFF36F8FFEE79DF800001A4C67
:1049300000F0500020700720A06005E09DF80020E6
:1049400052008DF80020401E9DF800201206F5D47C
:10495000A060032807D0502080F31188BFF34F8F49
:10496000BFF36F8FFEE74FF44070A06001980870AE
:104970000A48016841F470010160016841F070412A
:104980000160FFF715FF00206060FBF71FFC0020AF
:104990001CBD000000E400E09C00002020ED00E0D1
:1049A00010B5502080F31188BFF34F8FBFF36F8F86
:1049B00000F072F818B104494FF0805008600020F0
:1049C00080F3118810BD000004ED00E02DE9FF5FC9
:1049D0008346DDE90E87994616468A469000FFF722
:1049E000B1FD05001CD05420FFF7ACFD040014D02D
:1049F0000020256384F85100CDE90240CDE900870D
:104A00004B46324651465846FFF706FD2046FFF713
:104A10002BFC012004B0BDE8F09F2846FFF796FE6E
:104A20004FF0FF30F6E7F0B585B0DDE90B640A9D85
:104A3000A6B1DCB1542700972663022684F85160A2
:104A4000002604AFCDE90246CDE90057FFF7E4FCAC
:104A50002046FFF709FC049805B0F0BD502080F314
:104A60001188BFF34F8FBFF36F8FFEE7502080F3A5
:104A70001188BFF34F8FBFF36F8FFEE70548416981
:104A800019B1006B18B10020704701207047022057
:104A900070470000400000202DE9F0412F4C002617
:104AA000206B28B1A069401CA0613046BDE8F081B0
:104AB000E5686D1CE56013D1606B006838B150206B
:104AC00080F31188BFF34F8FBFF36F8FFEE7606BEA
:104AD000A16B6163A063206A401C2062FFF70EFD9A
:104AE000A06ADFF87C80854209D3606B0068A0B1C2
:104AF000606BC068C7687868854211D2A062206880
:104B0000C06A00EB800158F82100012800D9012675
:104B1000E0690028C9D00126C7E74FF0FF30EDE774
:104B2000381DFFF78FFDB86A18B107F11800FFF7BD
:104B300089FDF96A0120226988401043206101EB58
:104B4000810108EB8100391DFFF7C0FDF86A21687B
:104B5000C96A8842C9D30126C7E700004000002087
:104B6000740400202DE9F0472C4D00242746286BC3
:104B700038B1FFF7B7FD286B401E2863286B40B1A2
:104B800046E0502080F31188BFF34F8FBFF36F8F43
:104B9000FEE7A968224E0120D1B3A6F1B4098046F0
:104BA0003068E8B1F068C46804F11800FFF74AFD06
:104BB000201DFFF747FDE06A2A6908FA00F111435A
:104BC000296100EB800109EB8100211DFFF77EFDCB
:104BD000E06A2968C96A8842E2D3C5F81C80DFE729
:104BE0000CB1FFF78BFCAC6944B14646FFF754FFAC
:104BF00000B1EE61641EF9D10020A861E86938B106
:104C00000849012738070860BFF34F8FBFF36F8F44
:104C1000FFF788FD3846BDE8F0870000400000201F
:104C20002805002004ED00E010B500290AD008781E
:104C3000002807D005487844FCF794F8002801D0F4
:104C4000002010BD0248784410BD0000DE070000BF
:104C5000D60700000808A0F500114FEA310170479F
:104C600043004FEAD30C4FEA3C0C43401FBF4007C0
:104C70000CF1605113F0FE4F70471CF0006F03D130
:104C800000200CF0004170470CF0004343EA5070E4
:104C900010B540EACC0000F0CEF900BF0000009251
:104CA0004FEA0001FFF7D6BF4FF000414FF0000080
:104CB000A1F500217047000090EA010F48BF81F084
:104CC000004100F10A82421A3CBF801A89184FEA5B
:104CD000D0524FF07F4C1CEA410FA2EBD15318BFCA
:104CE0009CEA026F00F03B804FF0004C4CEA002041
:104CF0004CEA012121FA03FC10EB0C0C1ED202F14C
:104D0000FF325FEA1C2040EBC25038BF70471CF0F6
:104D10007F0F4FEA400C18BFBCF17F4F38BF704780
:104D2000C3F12003994008BF20F00100BCF17F4F80
:104D300038BF7047A0F1C04000F0C3B94FEA3C0053
:104D4000000A40EBC25028BF1CF0FF0F4FEA400C96
:104D5000E6D018BFBCF17F4F38BF7047EAE79CEA46
:104D6000026F05D010EA5C0F08BF00F000407047EA
:104D700010B500F060F900BF64FBBE3E014800F0D2
:104D80001CBA00BF0000C07F4FF47F0C1CEAD01299
:104D90001EBF1CEAD11392EA0C0F93EA0C0F00F02D
:104DA000858090EA010F48BF42F4807240F4000C05
:104DB00041F400002CF07F4120F07F4000B581429B
:104DC000A2EB03020FF2081CACEB504EC0F1000046
:104DD0009EF800E04FEA4E0E00FB0EFC38BF490083
:104DE0004FEA2C1C02F5FA020CFB0EF34FEACE1E22
:104DF0004FEA112C4FEAC1210EEB635E42EB2242D7
:104E00000EFB0CFC4FEA1C5300FB03114FEA112C64
:104E10004FEA01310EFB0CFC4FEADC4C00FB0C119D
:104E2000C14228BF09184CEB03335DF804EB10EBCB
:104E3000410143EBC250B2F57C0F38BF704729D512
:104E400012F0F00F1CBF00F1C04000F000407047AE
:104E5000008182838485868788898B8C8D8E8F9153
:104E60009293959697999A9C9D9FA0A2A3A5A7A877
:104E7000AAACAEB0B2B3B5B7B9BCBEC0C2C5C7C9A3
:104E8000CCCED1D4D7D9DCDFE2E6E9ECF0F3F7FA07
:104E9000FE0000004FEA400C0CF1807CBCF17E4F1C
:104EA00028BF7047B0F1C04000F00BB990EA010F85
:104EB0000CEAD11348BF42F48072624538BF6345A3
:104EC00007D213F47F0F16D080EA010000F00040F3
:104ED000704710B500F0AFF8097EFC3E00F005B851
:104EE00080EA010000F00040704780EA010000F015
:104EF000004000F0E6B812F47F0F04BF024870478C
:104F000080EA010000F0DDB80000C07FB0FA80F355
:104F100010FA03F2C3F19D030AD0D90501EB122068
:104F2000530638BF704700F1010008BF20F00100B0
:104F3000704700004FF47F0C1CEAD0121EBF1CEA21
:104F4000D11392EA0C0F93EA0C0F00F0478090EA1D
:104F5000010F48BF42F480724FF0004C4CEA002031
:104F60004CEA012102EB0302A0FB0113A2F50002AF
:104F7000002918BF43F001035B0028BF4FEA330349
:104F800042EB22425FEA132C4CEBC2502EBFBCEB2B
:104F9000436FB2F57C0F70474FEA036CBCF1004FD2
:104FA00008BF20F00100B2F57C0F38BF70470BD569
:104FB00082F0FF0212F5803FC8BF704700F1C04089
:104FC000D8BF00F00040704700F5000C5FEA4C0CC1
:104FD00048BF7047B0F1C04000F073B890EA010FCD
:104FE0000CEAD11348BF42F48072624538BF634572
:104FF00004D280EA010000F00040704710B500F0D4
:105000001AF800BF8900013E00F007B800F009B8A7
:105010005FEA410C5FEA1C6C08D080EA010000F0F6
:1050200050B85FEA400C5FEA1C6CF6D14FF00040CC
:10503000A0F5800070470EF1020E2EF0030E5EF810
:10504000044B244204D44FEA4102B2F17F4F11D8FD
:105050004FEA4003B3F17F4F0CD80ED14FEAD07C1A
:10506000B2F17F4F0CEB4C0C0CF1020C08BF4CEB77
:10507000D17C04E04FF0080C01E04FEAD17C0CEB4E
:105080004C0324FA03F404F00704B4F1040C06D230
:105090000EEB840CBDE810404CF0010C6047DFE8DB
:1050A0000CF0070802024FF00040A0F5800010BD90
:1050B0000846420018BFD2F1807288BF00F000405D
:1050C00010BDFF2141EAD050C005704790EA010FA2
:1050D00048BF81F000413FF5F6AD421A04D882F096
:1050E0000042A0EB020011444FEAD0524FF07F4C37
:1050F0001CEA410FA2EBD15318BF9CEA026F4AD0C1
:105100004FF0004C4CEA00204CEA012121FA03FC4C
:10511000B0EB0C0C0FD412F0FE0F36D05FEA4C004F
:105120001DD5001240EBC25038BF70471CF03F0F36
:1051300018BF70470BE0A2F101025FEA1C2040EBB0
:10514000C25038BF70471CF07F0F18BF7047C3F1C3
:105150002003994014BF401E20F0010070478008D2
:105160004FEA122308BF7047B0FA80FCA2EB0C0292
:10517000CCF1280C60FA0CF093EA122F04BF00EB7C
:10518000C25070474FEAC3707047130A5FEADC10E1
:1051900008BF7047F6E79CEA026F04D010EA5C0F84
:1051A00008BF0020704710B5FFF745FF40DFF63E0F
:1051B00081F000407047FBF74BBB0CF00F03092B4D
:1051C00008BF082000F051800A2B0BD0082B18BF15
:1051D000704708BF1CF0400F0AD04FF000004FF09E
:1051E000000170471CF0400F18BF4FF0004070479F
:1051F0001CF0100F08D020F0704300F07F4242EA0C
:10520000D3014FEA4370704700F0604021F07F42C5
:1052100042EA000201F07F4040EA727070474FF0AE
:10522000FF0212EAD0521CBF92F0FF038B42C2BFB2
:10523000D14200EBC1507047002A0AD0002B0BD09E
:10524000002900F00040A4BF40F0FE4040F4000000
:10525000704700F00040704743024FF00B0C18BF3E
:105260004CF0806C7FF48AAD70471CF4801F11D025
:105270001CF4E02F03D06FEACC31490070474FF0A7
:105280004050EFF3008222F0704242EA000282F3C3
:10529000008870474FF0000070470000DC530008A2
:1052A00071380008000000000000000080000000CD
:1052B0000000000000000000CC530008DD370008AB
:1052C000000000000000000080000000000000005E
:1052D00000000000D4530008153900080000000049
:1052E000000000008000000000000000000000003E
:1052F000E8530008C5390008000000000000000065
:105300008000000000000000000000000102020315
:105310000405060708090A0B0C0D0E0F10100000FB
:105320000000000000000102030406070809000055
:10533000000001020304000002400000000000A081
:105340000000000005400000000000C80000000050
:105350000C4000000000409C0000000019400000CC
:105360000020BCBE0000000034400000BFC91B8EFE
:1053700000000004B5400000504BCFD06607E2CFDC
:10538000010000006C4100003E8251AADFEEA7340C
:1053900001000000D9420000DCB5A0E23A301F97BE
:1053A000FFFFFFFFB4450000FD25A0C8E9A3C14FE2
:1053B000FFFFFFFFFF3F0000000000800000000033
:1053C000FF3F0000000000800000000041646354C3
:1053D00061736B004C63645461736B004275747449
:1053E0006F6E5461736B0000556172745461736B1E
:1053F000000000003054000800000020A800000059
:1054000028010008D8540008A80000202017000038
:10541000440100081C00000043000000F8FFFFFFEB
:105420000C0000000E0000000F0000002E00000025
:105430000000000000000000000000003333534073
:10544000000000000000000000000000000000005C
:105450000000000000004C45443A204F4646000042
:1054600001000000100000000000000000127A009F
:10547000000000000000000000000000000000002C
:10548000000000000000000000000000000000001C
:10549000000000000000000000000000000000000C
:1054A00000000000000000000000000000000000FC
:1054B00000000000000000000000000000000000EC
:1054C00000000000000000000000000000000000DC
:0854D000AAAAAAAA000000002C
:04000005080000ED02
:00000001FF
